:020000040800F2
:100000003004002045010008E1140008E314000852
:10001000E7140008EB140008EF14000800000000CB
:10002000000000000000000000000000F3140008C1
:10003000F514000800000000F7140008F914000887
:100040005F0100085F0100085F0100085F01000810
:100050005F0100085F0100085F0100085F01000800
:100060005F0100085F0100085F0100085F010008F0
:100070005F0100085F0100085F0100085F010008E0
:100080005F0100085F0100085F0100085F010008D0
:100090005F0100085F0100085F0100085F010008C0
:1000A0005F0100085F0100085F0100085F010008B0
:1000B0005F0100085F0100085F0100085F010008A0
:1000C0005F0100085F0100085F0100085F01000890
:1000D0005F0100085F0100085F0100085F01000880
:1000E0005F0100085F0100085F0100085F01000870
:1000F0005F0100085F0100085F0100085F01000860
:100100005F0100085F0100085F0100085F0100084F
:100110005F0100085F0100085F0100085F0100083F
:100120005F0100085F0100085F0100085F0100082F
:10013000DFF80CD001F038FD004800475D140008DE
:10014000300400200648804706480047FEE7FEE7E7
:10015000FEE7FEE7FEE7FEE7FEE7FEE7FEE7FEE777
:1001600047020008310100080CB500200190009002
:100170006C48006840F480306A49086000BF6948F4
:10018000006800F4003000900198401C0190009835
:1001900018B90198B0F5A06FF1D16248006800F479
:1001A000003010B10120009001E000200090009884
:1001B000012843D15C48006840F010005A490860AB
:1001C0000846006820F0030008600846006840F018
:1001D0000200086053484068524948600846406839
:1001E00048600846406840F48060486008464068BF
:1001F00020F47C1048600846406840F4E8104860ED
:100200000846006840F08070086000BF45480068FC
:1002100000F000700028F9D04248406820F0030048
:10022000404948600846406840F00200486000BF0E
:100230003C48406800F00C000828F9D10CBD10B50E
:10024000FFF792FF10BD10B53648006840F001007E
:1002500034490860084640683449084031494860DC
:1002600008460068324908402E4908600846006880
:1002700020F4802008600846406820F4FE004860B2
:100280004FF41F008860FFF7DAFF4FF00060294944
:10029000086010BD10B5002100200022214B5B68D2
:1002A00003F00C0121B1042906D0082928D107E068
:1002B000214B224C236027E01F4B204C236023E07E
:1002C000184B5B6803F47010164B5B6803F48032C4
:1002D000022303EB904022B9194B4343174C236090
:1002E0000DE0104B5B6803F4003323B1144B434320
:1002F000124C236003E0104B4343104C236003E097
:100300000D4B0E4C236000BF00BF064B5B68C3F370
:1003100003130C4CE15C094B1B68CB40074C23607A
:1003200010BD000000100240002002400000FFF855
:10033000FFFFF6FE08ED00E000127A00000000204A
:1003400000093D000400002030B943F2DB028100C7
:10035000A1F1C0410A6005E043F2D2028100A1F19F
:10036000C0410A606FF07042411C8900A1F1C04198
:100370000A608100A1F1C041C1F804217047102832
:100380000AD118214FF020421166402151664FF0EA
:10039000FC319166D16610E01821F74A11604021C6
:1003A0004FF02042C2F884104FF0FC31F24A08327C
:1003B00011604FF02042C2F88C1070471820EE49AF
:1003C0002031086000200906C1F8A4004FF0FC307D
:1003D000E94928310860091D0860091D0860704757
:1003E000D0E901121143C268114302691143426905
:1003F000114382691143C2691143026A1143426A7F
:100400001143826A1143C26A1143026B11430268AD
:100410009200A2F1C0421160816808290BD10168E5
:100420008900A1F1C041096841F0400201688900DA
:10043000A1F1C0410A60416B0968426B526841EA10
:100440000211426B926841EA0221426B928941EAB1
:100450000241426B128A41EA0251426B127D41EA2B
:100460000261426B926911430268521C9200A2F130
:10047000C0421160C16AB1F5804F1BD1816B096820
:10048000826B526841EA0211826B926841EA022152
:10049000826B128A41EA0251826B127D41EA02614B
:1004A000826B9269114302689200A2F1C042C2F8C5
:1004B000041107E06FF0704201688900A1F1C041AA
:1004C000C1F80421704730B50021002200234468A0
:1004D00044F0080485682C43C5682C4305692C4307
:1004E000456944EA4524856944EA4531C46924687C
:1004F000C5696D6844EA0524C5692D8944EA054447
:10050000C5692D7B44EA0562046A2468056A6D6842
:1005100044EA0524056A2D8944EA0544056A2D7BD1
:1005200044EA05630468102C05D14FF0204421668D
:10053000A266E36608E0904C21604FF02044C4F8C6
:1005400088208D4C0C34236030BD016841F01001CF
:10055000426841EA4221826841EA4231864A2032B9
:100560001160C1680968C268526841EA0221C26824
:10057000128941EA0241C268127B41EA02617E4A65
:1005800028321160016909680269526841EA022152
:100590000269128941EA02410269127B41EA026161
:1005A000754A2C321160416909684269526841EA12
:1005B00002214269128941EA02414269127B41EA01
:1005C00002614FF02042C2F8B01070470021016074
:1005D0000221416000218160C1600161416181614E
:1005E000C16101624FF48051416249008162002182
:1005F000C16201630F21426B1160426B5160FF21A8
:10060000426B91600F21426BD160426B1161426B72
:1006100051610021426B91610F21826B1160826BED
:100620005160FF21826B91600F21826BD160826BE0
:100630001161826B51610021826B916170471021C1
:100640000160002141608160C1600161416181619F
:10065000FC21C2691160C2695160C2699160C269BE
:10066000D160026A1160026A5160026A9160026A96
:10067000D16070470021016041608160FC21C26847
:100680001160C2685160C2689160C268D16002693D
:10069000116002695160026991600269D16042692A
:1006A000116042695160426991604269D16070474E
:1006B00051B18200A2F1C042126842F001038200EF
:1006C000A2F1C042136009E08200A2F1C0421268A8
:1006D0002A4B1A408300A3F1C0431A60704799B1B6
:1006E000102808D14FF02042126E42F004024FF061
:1006F00020431A661DE0204A126842F004024FF0BF
:100700002043C3F8802014E0102809D14FF0204284
:10071000126E1A4BDB1E1A404FF020431A6608E097
:10072000154A1268154BDB1E1A404FF02043C3F8E0
:100730008020704748B110492031096841F0040118
:100740004FF02042C2F8A01009E00B49203109689F
:100750000A4AD21E11404FF02042C2F8A010704742
:10076000B9B110280CD14FF02042126E42F0400275
:100770004FF020431A661FE0800000A0FEFF0F002C
:10078000724A126842F040024FF02043C3F88020C2
:1007900012E0102808D14FF02042126E6C4B1A4024
:1007A0004FF020431A6607E0684A1268684B1A4007
:1007B0004FF02043C3F880207047014600201029E5
:1007C00003D14FF02042506F02E0604A14321068AB
:1007D000704710B5F2B1102807D14FF020435B6E7F
:1007E0000B434FF02044636632E0B0F5807F08D1C0
:1007F000564B1B1D1B680B434FF02044C4F884303C
:1008000026E0524B24331B680B434FF02044C4F8BE
:10081000A4301DE0102807D14FF020435B6E8B43BE
:100820004FF02044636613E0B0F5807F08D1474B5A
:100830001B1D1B688B434FF02044C4F8843007E035
:10084000424B24331B688B434FF02044C4F8A43040
:1008500010BD10B5024600200023102A03D14FF02E
:100860002044636E09E0B2F5807F03D1374C241D2C
:10087000236802E0354C2434236803EA01040CB1F8
:10088000012000E0002010BD102807D14FF02042C9
:10089000526E8A434FF020435A6613E0B0F5807FD2
:1008A00008D12A4A121D12688A434FF02043C3F828
:1008B000842007E0254A243212688A434FF02043FF
:1008C000C3F8A420704770B502460020002300241E
:1008D0000025102A03D14FF02046736E09E0B2F5CF
:1008E000807F03D1194E361D336802E0174E24363F
:1008F000336803EA010403EAD10514B10DB1012004
:1009000000E0002070BD102808D14FF02042526E48
:1009100022EAD1024FF020435A6615E0B0F5807FFD
:1009200009D10A4A121D126822EAD1024FF020436F
:10093000C3F8842008E0054A2432126822EAD10272
:100940004FF02043C3F8A42070470000800000A0AF
:10095000BFFF0F0010B50446CC48844208D10121E6
:10096000042000F02DFB0021042000F029FB46E0CC
:10097000C748844208D10121082000F021FB002152
:10098000082000F01DFB3AE0C248844208D1012152
:10099000102000F015FB0021102000F011FB2EE0CC
:1009A000BD48844208D10121202000F009FB00212C
:1009B000202000F005FB22E0B848844208D1012144
:1009C000402000F0FDFA0021402000F0F9FA16E086
:1009D000B348844208D10121802000F0F1FA0021BF
:1009E000802000F0EDFA0AE0AE48844207D10121F0
:1009F000801500F0E5FA0021A01500F0E1FA10BD25
:100A000010B50121084600F0DBFA0021012000F0BA
:100A1000D7FA10BD2DE9F04102460025002600203E
:100A200000230024002791F803C00CF00F0591F873
:100A300003C00CF0100CBCF1000F03D091F802C001
:100A40004CEA050591F800C0BCF1000F31D01468E4
:100A500000202BE04FF0010C0CFA00F3B1F800C0BD
:100A60000CEA03069E4220D183004FF00F0C0CFAD3
:100A700003F7BC4305FA03FC4CEA040491F803C0F5
:100A8000BCF1280F06D14FF0010C0CFA00FCC2F8A3
:100A900014C00AE091F803C0BCF1480F05D14FF033
:100AA000010C0CFA00FCC2F810C0401C0828D1D37D
:100AB0001460B1F800C0BCF1FF0F34DD54680020B1
:100AC0002EE000F1080C4FF0010808FA0CF3B1F821
:100AD00000C00CEA03069E4221D183004FF00F0CA8
:100AE0000CFA03F7BC4305FA03FC4CEA040491F842
:100AF00003C0BCF1280F05D100F1080C08FA0CF86E
:100B0000C2F8148091F803C0BCF1480F07D100F17E
:100B1000080C4FF0010808FA0CF8C2F81080401CCD
:100B20000828CED35460BDE8F0814FF6FF710180F4
:100B3000022181700421C170704702460020936831
:100B40000B400BB1012000E000207047014688688F
:100B500080B2704702460020D3680B400BB10120E1
:100B600000E0002070470146C86880B2704701610C
:100B70007047416170470AB1016100E0416170470F
:100B8000C16070474FF480320A43826181618261A3
:100B900082698269704702460020434B18684FF60D
:100BA0008073184040EA021008433F4B18607047BA
:100BB0003E49C8617047F0B50A4600230024002171
:100BC000002500F00046B6F1004F02D1364EF16923
:100BD00001E0354E7168C0F3034583B200F440165E
:100BE000B6F5401F08D121F070612F4E766826F0CF
:100BF00070662D4F7E6012E000F48016B6F5801FFF
:100C000006D1032606FA05F4A14341F0706106E01F
:100C1000460D360103FA06F6B14341F0706122B188
:100C2000460D360103FA06F6314300F00046B6F1F0
:100C3000004F02D11C4EF16101E01B4E7160F0BD0E
:100C400030B500228B071C0F0F2303FA04F2164B5A
:100C500008338C1053F824309343134C08348D1010
:100C600044F8253023468C1053F824308C07240F89
:100C700000FA04F423430C4C08348D1044F825305A
:100C800030BD0A49DC3108607047000000080140AF
:100C9000000C014000100140001401400018014008
:100CA000001C0140002001400000014000002042E3
:100CB000DF48006840F00100DD49086008464068F0
:100CC000DC490840DA49486008460068DA490840CB
:100CD000D74908600846006820F48020086008466C
:100CE000406820F4FE0048604FF41F0088607047A1
:100CF000CF49096821F48031CD4A11601146096855
:100D000021F480211160B0F5803F03D0B0F5802F31
:100D10000ED106E0C649096841F48031C44A116029
:100D200007E0C349096841F4A021C14A116000E00D
:100D300000BF00BF704710B501460022002300200D
:100D40004A11012A02D1BA4C236806E0022A02D1D4
:100D5000B74C236A01E0B64C636A01F01F0201241C
:100D600094401C400CB1012000E0002010BD38B5BB
:100D7000002000900024002500BF3120FFF7DBFF9A
:100D800005460098401C00900098B0F5A06F01D077
:100D9000002DF2D03120FFF7CEFF08B1012400E092
:100DA0000024204638BD01460020A14A106820F0EA
:100DB000F80040EAC10010607047A0490860704721
:100DC000024600209A4B586820F47C1042EA010346
:100DD0001843974B5860704798490866704701461A
:100DE0000020934A506820F0030008435060704789
:100DF0008F48406800F00C007047014600208C4A84
:100E0000506820F0F0000843506070470146002011
:100E1000874A506820F4E0600843506070470146FC
:100E20000020834A506820F4605040EAC1005060BE
:100E3000704729B17E4A527A02437D4B5A7204E0D0
:100E40007B4A527A82437A4B5A7270477B49D83137
:100E50000860704701460020754A506820F4404001
:100E60000843506070470021714A20321170704A67
:100E700082F82010012802D004280AD104E00121C0
:100E80006B4A2032117005E00521694A2032117049
:100E900000E000BF00BF70476949086070476449BF
:100EA000096A0143624A1162704765494439086022
:100EB000704730B500210022002400235C4D6D688E
:100EC00005F00C0121B1042905D0082923D105E042
:100ED0005C4D056022E05B4D05601FE0544D6D6880
:100EE00005F47012524D6D6805F48034022505EB4F
:100EF00092421CB9544D554305600BE04C4D6D6852
:100F000005F400351DB1504D5543056002E04D4DCF
:100F10005543056002E04B4D056000BF00BF444DE6
:100F20006D6805F0F0010909484D6B5C0568DD400E
:100F300045603F4D6D6805F4E061090A434D6B5C07
:100F40004568DD4085603A4D6D6805F46051C90A19
:100F50003E4D6B5C4568DD40C560354D6D6805F400
:100F60004041890B3A4D6B5CC568B5FBF3F50561F3
:100F700030BD29B12E4A526902432D4B5A6104E01B
:100F80002B4A526982432A4B5A61704729B1284A39
:100F900092690243264B9A6104E0254A9269824392
:100FA000234B9A61704729B1214AD2690243204BF1
:100FB000DA6104E01E4AD26982431D4BDA61704750
:100FC00029B11B4AD2680243194BDA6004E0184A7F
:100FD000D2688243164BDA60704729B1144A12690D
:100FE0000243134B1A6104E0114A12698243104B09
:100FF0001A61704712494039086070470F49C86448
:1010000070470B49C87170470948406A40F08070CA
:1010100007494862704701460020054A92680A4025
:101020000AB1012000E00020704701498872704732
:10103000001002400000FFF8FFFFF6FE00004242F1
:101040008004424200127A0000093D001400002092
:101050002400002010B50446FB48844209D1012138
:101060008803FFF7ADFF00214FF48040FFF7A8FF92
:1010700032E0F648844209D101214804FFF7ADFF70
:1010800000214FF40030FFF7A8FF25E0F04884422C
:1010900009D101218804FFF7A0FF00214FF480202F
:1010A000FFF79BFF18E0EB48844209D10121C804F7
:1010B000FFF793FF00214FF40020FFF78EFF0BE0B6
:1010C000E548844208D101210805FFF786FF002189
:1010D0004FF48010FFF781FF10BD2DE9F04786B077
:1010E00005460E460024A24600BFA1460027B0894F
:1010F00000B100BF2F462C8A4CF6FF700440F088E8
:1011000004432C82AC894EF6F3100440B088318938
:101110000843718908430443AC81AC8A4FF6FF4011
:101120000440B0890443AC8201A8FFF7C2FEC64860
:10113000874202D1DDF810A001E0DDF80CA0A889FB
:1011400000F4004040B10AEBCA0000EB0A1031681D
:101150004900B0FBF1F807E00AEBCA0000EB0A1007
:1011600031688900B0FBF1F86420B8FBF0F00401AD
:101170002009642101FB1089A88900F4004040B1D6
:10118000322000EBC900B0FBF1F000F0070004438F
:1011900008E0322000EB09106421B0FBF1F000F010
:1011A0000F0004432C8106B0BDE8F0874FF41651C0
:1011B000016000218180C18001810C2141810021D9
:1011C0008181704710B502460020108A4FF2FF035C
:1011D00018400B884C8823438C882343CC882343B6
:1011E0001843108210BD0021018041808180C180A0
:1011F000704721B1828942F40052828104E08289E1
:101200004DF6FF731A4082817047F0B50346002403
:1012100000260025002040F66A17B94200D100BF21
:101220001846C1F3421401F01F06012707FA06F51C
:10123000012C01D10C3004E0022C01D1103000E06F
:1012400014301AB107682F43076002E00768AF4304
:101250000760F0BD1AB1838A0B43838202E0838A60
:101260008B4383827047028A4FF6F0731A400282E2
:10127000028A0A430282704782894FF2FF731A4042
:10128000828182890A438281704721B1828942F03A
:101290000202828104E082894FF6FD731A40828146
:1012A0007047028A4FF6DF731A400282028A0A43AD
:1012B0000282704721B1028A42F48042028204E035
:1012C000028A4BF6FF731A4002827047C1F308028C
:1012D0008280704701468888C0F308007047818982
:1012E00041F0010181817047028BD2B20283028BEF
:1012F00042EA012202837047028B02F47F4202839A
:10130000028B0A430283704721B1828A42F0200295
:10131000828204E0828A4FF6DF731A40828270472D
:1013200021B1828A42F01002828204E0828A4FF662
:10133000EF731A408282704721B1828A42F008021C
:10134000828204E0828A4FF6F7731A4082827047E5
:1013500021B1828942F40042828103E08289C2F392
:101360000E028281704721B1828A42F40062828239
:1013700004E0828A4FF2FF731A4082827047828AA9
:101380004FF6FB731A408282828A0A438282704738
:1013900021B1828A42F00202828204E0828A4FF600
:1013A000FD731A408282704702460020B1F5007F2B
:1013B00000D100BF13880B400BB1012000E00020DA
:1013C000704701F40072B2F5007F00D100BFCA433C
:1013D0000280704770B502460024002300250020DB
:1013E00040F66A16B14200D100BFC1F3421501F0C8
:1013F0001F03012606FA03F3012D02D1968933401B
:1014000006E0022D02D1168A334001E0968A33406D
:101410000C12012606FA04F41688344013B10CB1FC
:10142000012000E0002070BD10B50022002340F62E
:101430006A14A14200D100BF0A1201249440A3B251
:10144000DC43048010BD000000380140004400402F
:1014500000480040004C00400050004000F021FBDC
:1014600000F0AAF82020104908600120086002203E
:10147000091D086000F042F80CA000F0D1FB00F05C
:10148000BEF9044621460FA000F0CAFB00F042FB63
:1014900000BFFEE701B502E00098401E00900098F2
:1014A0000028F9D108BD0000100C01400D0A20D51C
:1014B000E2CAC7D2BBB8F64C4344CAB5D1E9200D45
:1014C0000A0000000D0A30783043C3FCC1EEB7B506
:1014D000BBD8D6B5B2E2CAD4A3BA3078257800001A
:1014E000704700BFFEE700BFFEE700BFFEE700BF9A
:1014F000FEE77047704770477047000000B585B041
:1015000001210420FFF742FD01218803FFF73EFD82
:101510004FF40070ADF8100018208DF81300032070
:101520008DF8120004A92248FFF774FA4FF4806086
:10153000ADF8100004208DF8130004A91C48FFF733
:1015400069FA4FF4E13000900020ADF80400ADF8E6
:101550000600ADF80800ADF80C000C20ADF80A004C
:1015600069461448FFF7B9FD01211248FFF741FE13
:1015700005B000BD70B504460D46E1B20D48FFF759
:10158000A5FE00BF80210B48FFF70EFF0028F9D011
:10159000204670BD10B5044600BF20210548FFF766
:1015A00003FF0028F9D00348FFF794FE10BD0000A8
:1015B000000801400038014008B501210820FFF76C
:1015C000E5FC2020ADF8000010208DF8030003207A
:1015D0008DF8020069460F48FFF71CFA0120ADF8AC
:1015E000000069460B48FFF715FA0220ADF800002D
:1015F00069460848FFF70EFA20210648FFF7B7FAB8
:1016000001210448FFF7B3FA02210248FFF7AFFABD
:1016100008BD0000000C014008B501216020FFF763
:10162000B5FC4FF48050ADF8000010208DF8030099
:1016300003208DF802006946FE48FFF7EBF902200F
:10164000ADF800006946FC48FFF7E4F98020ADF8EA
:10165000000018208DF8030003208DF80200694671
:10166000F448FFF7D7F91020ADF800006946F148BB
:10167000FFF7D0F92020ADF800006946ED48FFF7EC
:10168000C9F94FF40060ADF800006946E948FFF77A
:10169000C1F903208DF8020018208DF803004FF4E3
:1016A0008040ADF800006946E248FFF7B3F94FF417
:1016B0000040ADF800006946DE48FFF7ABF90120B5
:1016C000ADF800006946DB48FFF7A4F90220ADF849
:1016D00000006946D748FFF79DF98020ADF800006B
:1016E0006946D548FFF796F94FF48070ADF80000D1
:1016F0006946D148FFF78EF94FF40070ADF800004D
:101700006946CD48FFF786F94FF48060ADF80000D8
:101710006946C948FFF77EF94FF40060ADF8000054
:101720006946C548FFF776F94FF48050ADF80000E0
:101730006946C148FFF76EF94FF40050ADF800005C
:101740006946BD48FFF766F94FF48040ADF80000E8
:101750006946B948FFF75EF94FF40040ADF8000064
:101760006946B548FFF756F94FF48070ADF80000B0
:101770006946B048FFF74EF94FF40070ADF800002D
:101780006946AC48FFF746F94FF48060ADF80000B9
:101790006946A848FFF73EF908BD00B597B001219A
:1017A0000802FFF7E6FB01200190042003900020CF
:1017B00002900490059006904FF080500790002012
:1017C0000890099008200A9010200B9000200C909F
:1017D0000D900E900F9010904FF4805011900020BB
:1017E00012901390149001A81590169008A8FEF777
:1017F000F7FD01210020FEF75BFF17B000BD10B51B
:101800000C2000F002FA00BF8C48008800BF8B4813
:10181000008810BD10B504462CB14FF480518548A6
:10182000FFF7A7F904E04FF480518248FFF79FF9D2
:1018300010BD01B502E00098401E009000980028FD
:10184000F9D108BD10B502217B48FFF792F940F6A7
:10185000FF20FFF7EEFF02217748FFF788F940F6F7
:10186000FF20FFF7E6FF10BD10B5CF2000F0CDF947
:10187000002000F0CFF9812000F0CCF9302000F0FA
:10188000C9F9ED2000F0C1F9642000F0C3F903208C
:1018900000F0C0F9122000F0BDF9812000F0BAF983
:1018A000E82000F0B2F9852000F0B4F9102000F033
:1018B000B1F9782000F0AEF9CB2000F0A6F939207C
:1018C00000F0A8F92C2000F0A5F9002000F0A2F902
:1018D000342000F09FF9022000F09CF9F72000F07E
:1018E00094F9202000F096F9EA2000F08EF900200B
:1018F00000F090F9002000F08DF9B12000F085F99A
:10190000002000F087F91B2000F084F9B62000F0D9
:101910007CF90A2000F07EF9A22000F07BF9C020BB
:1019200000F073F9352000F075F9C12000F06DF971
:10193000112000F06FF9C52000F067F9452000F094
:1019400069F9452000F066F9C72000F05EF9A22091
:1019500000F060F9F22000F058F9002000F05AF988
:10196000262000F052F9012000F054F9E02000F0A8
:101970004CF90F2000F04EF9262000F04BF92420FE
:1019800000F048F90B2000F045F90E2000F042F974
:10199000092000F03FF9542000F03CF9A82000F0A5
:1019A00039F9462000F036F90C2000F033F9172001
:1019B00000F030F9092000F02DF90F2000F02AF98D
:1019C000072000F027F9002000F024F9E12000F0C2
:1019D0001CF9002000F01EF9192000F01BF91B2053
:1019E00000F018F9042000F015F9102000F012F9A9
:1019F000072000F00FF92A2000F00CF9472000F032
:101A000009F9392000F006F9032000F003F9062057
:101A100000F000F9062000F0FDF8302000F0FAF8A0
:101A2000382000F0F7F80F2000F0F4F8362000F02E
:101A3000ECF805E0001401400018014000000260CD
:101A4000C82000F0E7F82A2000F0DFF8002000F0BE
:101A5000E1F8002000F0DEF8002000F0DBF8EF20D5
:101A600000F0D8F82B2000F0D0F8002000F0D2F8D9
:101A7000002000F0CFF8012000F0CCF83F2000F06B
:101A8000C9F83A2000F0C1F8552000F0C3F8112041
:101A900000F0BBF82A48FFF7CCFE292000F0B5F88B
:101AA00010BD10B5FFF7B8FDFFF777FE0120FFF777
:101AB000B1FEFFF7C7FEFFF7D7FE10BD2DE9F041DD
:101AC00004460D4616461F462A2000F09EF8200ABE
:101AD00000F0A0F8E0B200F09DF8A119C1F30720D2
:101AE00000F098F8A119C8B200F094F82B2000F08B
:101AF0008CF8280A00F08EF8E8B200F08BF8E919AB
:101B0000C1F3072000F086F8E919C8B200F082F8A6
:101B1000BDE8F08110B564231A4614210A20FFF7AE
:101B2000CDFF2C2000F071F8002404E047F67C0083
:101B300000F070F8641C42F210708442F6D310BDBD
:101B4000FCBF02002DE9F05F0546002092469B464F
:101B500088460646814640241BE0284641464746C3
:101B6000224600F042F853465A46C01A914110D31B
:101B700011461846224600F029F82D1A67EB010895
:101B80004F4622460120002100F020F817EB000903
:101B90004E41201EA4F10104DFDC484631462A46AE
:101BA0004346BDE8F09F0000064C074D06E0E068A4
:101BB00040F0010394E8070098471034AC42F6D394
:101BC000FEF7BAFA201F0008401F0008202A04DB95
:101BD000203A00FA02F1002070479140C2F1200340
:101BE00020FA03F3194390407047202A04DB203A7F
:101BF00021FA02F00021704721FA02F3D040C2F12D
:101C0000200291400843194670474FF0C0410880B8
:101C10007047000001490880704700000000026022
:101C20000FB4054B10B503A9044A029800F018F848
:101C300010BC5DF814FB000075150008280000209A
:101C400002E008C8121F08C1002AFAD17047704785
:101C5000002001E001C1121F002AFBD170470000E3
:101C60002DE9FF4F8DB09B460F460446002606E047
:101C700025280BD05A460F999047641C761C207873
:101C80000028F5D111B03046BDE8F08F0025A846F8
:101C90000122984900E0054314F8013F203B02FA75
:101CA00003F00842F7D120782E2817D114F8010F3D
:101CB00045F004052A280ED06FF02F022078A0F1FD
:101CC000300109290AD808EB880102EB410100EB39
:101CD0000108641CF2E757F8048B641C20786C2818
:101CE0000DD004DC4C2812D06A2811D104E07428ED
:101CF0000DD07A280CD10AE045F4001507E0617890
:101D000045F48015814202D1641C05F58015641CE0
:101D10002278692A45D008DC002AB3D0582A69D035
:101D2000632A10D0642A08D13BE0702A67D0732A56
:101D300013D0752A5CD0782A5CD010465A460F9989
:101D40009047761CD3E017F8040B8DF800000020B4
:101D50008DF80100E946012003E057F8049B4FF09D
:101D6000FF3069074FF0000501D40AE06D1C4545BE
:101D70000DDA8542FADB19F805100029F6D106E0E4
:101D80006D1C8542FCDB19F805100029F8D12E44A2
:101D900004E019F8010B5A460F9990476D1EF8D2CE
:101DA000A5E00A200021CDE90801C5F30250022870
:101DB0000DD001CFC117031E71F100030DDA4FF0F2
:101DC000000CD0EB0C006CEB01012D2308E0FF1D93
:101DD00027F00707F7E80201EDE72B0504D52B23D1
:101DE0008DF8283001233BE0EB0739D02023F7E7BB
:101DF0000A2000E010200021CDE9080107E01020B2
:101E0000002145F00405CDE908014FF00808C5F3AD
:101E1000025002280FD001CF00214FF0000A2B07FB
:101E20001FD5702A0DD0DDE908C38CF0100C5CEAD8
:101E3000030C0CD015E0FF1D27F00707F7E802019F
:101E4000EBE740228DF828204FF0010A0BE050EA22
:101E5000010306D030238DF828308DF82920022385
:101E60009A46582A04D024A20DF120090B9209E0C9
:101E700026A2F9E7DDE90823FFF764FE0B9B9B5CD4
:101E800009F8013D50EA0102F4D1ADEB0900203020
:101E90000890680701D44FF001080899884502DDD1
:101EA000A8EB010000E000208046002506E00AA81B
:101EB0005A46405D0F9990476D1C761C5545F6DBE0
:101EC00004E030205A460F999047761CB8F1000183
:101ED000A8F10108F5DC05E019F8010B5A460F9945
:101EE0009047761C0899481E08900029F4DC641C71
:101EF000C5E6000009280100303132333435363769
:101F00003839616263646566000000003031323345
:101F100034353637383941424344454600000000E5
:101F2000401F0008000000202C000000401C00089A
:101F30006C1F00082C00002004040000501C000846
:101F400000A24A0400000000000000000102030497
:101F5000060708090000000001020304010203044F
:0C1F600006070809020406080000000043
:0400000508000131BD
:00000001FF
