:020000040800F2
:10000000A83A002045010008452C0008F91F000807
:10001000412C00087D160008EB38000800000000A5
:100020000000000000000000000000003133000864
:100030000D19000800000000F92D0008193500080E
:100040005F0100085F0100085F0100085F01000810
:100050005F0100085F0100085F0100085F01000800
:100060005F0100085F0100085F0100085F010008F0
:100070005F0100085F0100085F0100085F010008E0
:100080005F0100085F0100085F0100085F010008D0
:100090005F0100085F0100085F0100085F010008C0
:1000A0005F0100085F0100085F0100085F010008B0
:1000B0005F0100085F0100085F0100085F010008A0
:1000C0005F0100085F0100085F0100085F01000890
:1000D0005F0100085F0100085F0100085F01000880
:1000E0005F0100085F0100085F0100085F01000870
:1000F0005F0100085F0100085F0100085F01000860
:100100005F0100085F0100085F0100085F0100084F
:100110005F0100085F0100087D3500085F010008ED
:100120005F0100085F0100085F0100085F0100082F
:10013000DFF80CD000F004FC00480047354A000806
:10014000A83A00200648804706480047FEE7FEE739
:10015000FEE7FEE7FEE7FEE7FEE7FEE7FEE7FEE777
:100160001D350008310100080649074A0868504358
:1001700043F23902104408604008704701490860A2
:1001800070470000200100206D4EC641D2B201E050
:1001900000F8012B491EFBD270470022F6E710B58C
:1001A00013460A4604461946FFF7F0FF204610BDE5
:1001B000421C10F8011B0029FBD1801A7047F0B4D3
:1001C00080EA0102D40F4200B2EB410F02D2024694
:1001D000084611464A0042D0C30DDDB2C1F3C752F2
:1001E000AD1A202D35DAC1F3160141F4000204B135
:1001F0005242C5F1200602FA06F12A411044B3EB3F
:10020000D05F23D0C4B1012DA0EBC35009DCF0BCFA
:100210004FF0004202EAC352DBB200F5000000F0EA
:1002200003BB400000F1807000EBC350A0F1807070
:1002300040EAD170490009E0490841EAC071A0EBE9
:10024000C35000F50000400800EBC350F0BC00F0C4
:10025000E2BA6142012202EB4101001BF6E7F0BC69
:10026000704781F00041AAE780F00040A7E780EAEC
:10027000010210B502F00043400022D04A001FD016
:10028000010E01EB1261C0F35600C2F3560240F4B6
:10029000000042F40002A0FB022000047F39140495
:1002A00000D0401C50EA124001D44000491EC2B2A6
:1002B0000C0604EBD010401C4008802A02D003E05A
:1002C000002010BD20F00100002900DA00201843B2
:1002D00010BD30B480EA010202F0004530F0004267
:1002E00021F0004013D090B1C30DD40DC2F316011C
:1002F000C0F31600E41A41F4000140F400027D341A
:10030000914201D3641C00E04900002C02DA30BCA9
:10031000002070474FF400000023914201D3891A56
:10032000034340084FEA4101F7D151B1914202D154
:100330004FF0004105E002D24FF0010101E06FF003
:10034000010103EBC450284430BC00F064BA2DE92D
:10035000FE4F804681EA0300C00F0C46009021F05A
:10036000004123F00045B8EB0200A94105D2404608
:10037000214690461C460B46024623F0004010439F
:1003800047D0270DC7F30A00C3F30A510290401A61
:10039000019040286BDAC3F3130040F4801B0098EF
:1003A000924620B10023D2EB030A63EB0B0B0198BA
:1003B0005946C0F14002504600F0FCF906460D4691
:1003C00050465946019A00F014FA10EB08006141BA
:1003D000002487EA115284EAE7731A4340D0009A56
:1003E00062B3019A012A4FEA075215DC001B61EB48
:1003F00002014FF0004202EA0752CDE90042001C20
:1004000041F5801132462B4600F04BFA03B0BDE8AF
:10041000F08F40462146F9E7001B61EB0201001C0A
:1004200041F5801300185B412018A2F5001747EB37
:10043000030140EAD570B6196D4111E06D084FEA2D
:10044000360645EAC0754FEA0752001B61EB020110
:10045000001C41F5801149084FEA30000019514154
:1004600032462B4603B0BDE8F04F00F00BBA0098BF
:10047000012240000023D0EB020263EBE0730098FE
:1004800021464FEAE074B8EB000061EB0401E9E7B4
:1004900083F000435BE781F0004158E72DE9FE4F10
:1004A00081EA030404F0004421F0004100944FF07D
:1004B000000B23F0004350EA01045ED052EA03042B
:1004C0005BD0C3F30A54C1F30A552C44A4F2F334AD
:1004D0000194A0FB0254C1F3130141F48011C3F352
:1004E000130343F4801301FB024400FB034E840A10
:1004F000970A44EA815447EA8357A4FB07680295A8
:100500008D0A05FB07854FEA932C04FB0C54270545
:10051000029D4FEA065847EA1637B5EB08056EEB21
:10052000070C870E920E47EA811742EA8312A7FB57
:100530000201B6EB0B0164EB00042B0D43EA0C3314
:100540005E1844EB1C50DA465146E7FB0201C5F346
:1005500013044FEA0B3343EA14534FEA0432019C6D
:1005600043EA0603A4F10C040294009CCDE900B414
:1005700000F097F903B0BDE8F08F00200146F9E7DD
:100580002DE9F04D81EA030404F0004B21F0004511
:1005900014464FF0000A23F0004150EA050220D033
:1005A00054EA01021DD0C5F30A570246C5F31303EE
:1005B000C1F31300C1F30A5640F4801543F48013CD
:1005C000A7EB0608101BD64608F2FD3873EB0500B2
:1005D00002D308F1010801E092185B41B8F1000F65
:1005E00003DA00200146BDE8F08D00204FF48011B1
:1005F000064684460EE0171B73EB050705D3121B56
:1006000063EB050306434CEA010C49084FEA30004E
:1006100092185B4150EA0107EDD152EA030012D073
:1006200082EA040083EA0501084305D0101BAB41B0
:1006300006D20122002306E000224FF0004302E030
:100640006FF0010253101AEB06004CEB085110EB4F
:100650000A0041EB0B01BDE8F04D00F013B9C10FEA
:1006600080EAE0700844CA079623002100F0DCB855
:100670000EB540F2334102910021CDE900110A4646
:100680000B4600F00EF903B000BD00F0004220F070
:100690000040C10DC0F3160040F400007F2901DACC
:1006A00000207047962903DCC1F19601C84001E0A3
:1006B00096398840002AF4D04042704720F000402C
:1006C000C10DC0F3160040F400007F2901DA0020BC
:1006D0007047962903DCC1F19601C84070479639EE
:1006E00088407047C1F30A5210B5C1F3130140F2BC
:1006F000FF3341F480119A4201DA002010BD40F22C
:1007000033439A42A2F2334203DC524200F061F8D2
:1007100010BD904010BD00F0004230F000400AD003
:10072000C10D01F56071C0F3160042EA0151C20823
:1007300040071143704700200146704701F0004315
:1007400030B421F0004150EA010206D00A0DA2F5B2
:100750006072C1F31301002A02DC30BC0020704734
:10076000440F44EAC104C100E01830BC00EBC250A1
:1007700000F051B8002801DBC0F10040002901DB86
:10078000C1F100418142704730B50B46014600205F
:100790002022012409E021FA02F59D4205D303FA43
:1007A00002F5491B04FA02F52844151EA2F10102C4
:1007B000F1DC30BD202A04DB203A00FA02F10020EF
:1007C00070479140C2F1200320FA03F3194390408F
:1007D0007047202A04DB203A21FA02F000217047FA
:1007E00021FA02F3D040C2F1200291400843194699
:1007F0007047202A06DBCB17203A41FA02F043EA81
:10080000E07306E041FA02F3D040C2F120029140C9
:100810000843194670470029A8BF7047401C49008B
:1008200008BF20F00100704710B4B0FA80FC00FA55
:100830000CF050EA010404BF10BC704749B1CCF180
:10084000200421FA04F411FA0CF118BF012121430C
:100850000843A3EB0C01CB1D4FEA00614FEA1020C7
:1008600042BF002010BC704700EBC3501044002969
:10087000A4BF10BC7047401C490008BF20F0010015
:1008800010BC704710B5141E73F1000408DA401C48
:1008900041F1000192185B411A4301D120F001009F
:1008A00010BD2DE9F04D92469B4611B1B1FA81F28F
:1008B00002E0B0FA80F220329046FFF77BFF044658
:1008C0000F4640EA0A0041EA0B0153465A460843E4
:1008D00013D0114653EA010019D0C8F14002504626
:1008E000FFF777FF05460E46504659464246FFF74A
:1008F00061FF084305D0012004E020463946BDE8E9
:10090000F08D0020054346EAE0762C4337430A98F1
:100910006305E40AA0EB08000022FD0A44EA4754FC
:100920000A3002D500200146E9E7010510196941A6
:10093000DDE9084500196941BDE8F04DA2E7000076
:10094000064C074D06E0E06840F0010394E807001C
:1009500098471034AC42F6D3FFF7EEFB208900082D
:100960004089000870B58C1810F8015B15F007037A
:1009700001D110F8013B2A1106D110F8012B03E038
:1009800010F8016B01F8016B5B1EF9D12B0705D440
:100990000023521E0DD401F8013BFAE710F8013B89
:1009A000CB1A921C03E013F8015B01F8015B521EA5
:1009B000F9D5A142D8D3002070BD21B1826842F0A0
:1009C0000102826003E0826822F0010282607047C7
:1009D00021B1826842F48072826003E0826822F46E
:1009E000807282607047014600208A6802F004022B
:1009F0000AB1012000E000207047014600208A680B
:100A000002F008020AB1012000E000207047000057
:100A100030B502460020002350680F4C20400D796D
:100A20000C6844EA05242043506090680B4C204039
:100A3000D1E902542C434D7944EA450420439060A7
:100A4000D06A20F470000C7C641EE4B2234340EAB8
:100A50000350D06230BD0000FFFEF0FFFDF7F1FF54
:100A6000F0B504460D4600200021092D11DDE06897
:100A7000A5F10A0606EB4607072606FA07F18843A2
:100A8000A5F10A0606EB460603FA06F10843E06004
:100A90000CE0206905EB4507072606FA07F18843B5
:100AA00005EB450603FA06F108432061072A0FDA31
:100AB000606B561E06EB86071F2606FA07F1884371
:100AC000561E06EB860605FA06F10843606322E02F
:100AD0000D2A0FDA206BD61F06EB86071F2606FAB3
:100AE00007F18843D61F06EB860605FA06F1084390
:100AF000206310E0E06AA2F10D0606EB86071F26D0
:100B000006FA07F18843A2F10D0606EB860605FA00
:100B100006F10843E062F0BD816841F008018160A0
:100B2000704721B1826842F4A002826003E08268CB
:100B300022F4A00282607047816841F00401816064
:100B40007047000008B50121102002F099F9082033
:100B5000ADF8000000208DF803006946014801F05F
:100B600032F908BD0010014010B5FFF7EBFF00F0AF
:100B700001F810BD00B591B00121084602F060F9FE
:100B80000121480202F07CF9334800F0FBFD3348B4
:100B9000069033480790002008900120099000201B
:100BA0000A900B904FF480700C9080000D902020E4
:100BB0000E9000020F900020109006A9264800F029
:100BC00087FE0121244800F0D1FD002001908DF81E
:100BD000080001208DF809004FF4602003900020E8
:100BE000049001208DF8140001A91C484C38FFF72F
:100BF0000FFF4FF4404002F017F9052301220D21A9
:100C000016484C38FFF72CFF012114484C38FFF7E9
:100C1000DFFE012111484C38FFF7CFFE0F484C385A
:100C2000FFF77AFF00BF0D484C38FFF7E6FE0028BB
:100C3000F9D10A484C38FFF77FFF00BF07484C380E
:100C4000FFF7D1FE0028F9D1012104484C38FFF705
:100C500068FF11B000BD0000080002404C240140B4
:100C60001C01002010B500F023F800F001F810BDC1
:100C70000EB50121102002F0F3F840F69F70ADF898
:100C800004004720ADF800006946084802F0B2FCB5
:100C90000121064802F082FC01221146034802F0BD
:100CA000A0FC0121014802F07FFC0EBD00100040B5
:100CB00008B54FF4E06001F0FFFF36208DF800002A
:100CC00000208DF8010001208DF802008DF803004E
:100CD000684601F0B9FF08BD2DE9F04112490968E5
:100CE0008888FFF7C5FC07460022104BFFF7D0FBB2
:100CF0000546FFF7F7FC84B20B4A1268528802EBF4
:100D00004202032303EB420291B2074A126812889F
:100D100002EB420203EB420290B20123224601F0B1
:100D2000BBFABDE8F08100000C0100200000E03FAC
:100D300010B50A2003F0DCFE0A4908601420096897
:100D4000088003200749096888801420054909683C
:100D50004880002003490968C880012001490968CA
:100D6000088110BD0C0100202DE9F04786B0FE4837
:100D700000680488FC480068B0F80290FB480078DE
:100D800010B906B0BDE8F087F74A1268528802EB46
:100D900042024FF6FF7303EA4201F34A12681288D7
:100DA00002EB420203EA420006231A4601F038F938
:100DB000ED480068C08830B1012873D0022872D095
:100DC000032871D142E2601C272806DB0220E64995
:100DD0000968C880FFF7C8FFAAE0A9F10100002850
:100DE00006DC0120E0490968C880FFF7BDFF9FE0ED
:100DF000601C00EB8000DE4901EB401050F8290038
:100E000010B30220D8490968C8804946601C00F028
:100E10007FFDD8480078401CD64908700846027803
:100E2000D5A101A803F082FBD64801F0CDFE4FF614
:100E3000FF71002001F0BEFE01AAFD21A22001F0F9
:100E4000D1F9FFF791FF73E004EB8400C84901EB8F
:100E50004011A9F1010051F8200030B30120C2492E
:100E60000968C880A9F10101204600F051FDC14880
:100E70000078401CBF49087008460278BEA101A84E
:100E800003F054FBBF4801F09FFE4FF6FF710020B6
:100E900001F090FE01AAFD21A22001F0A3F9FFF7C5
:100EA00063FF45E045E006E195E2601C00EB800051
:100EB000AF4901EB4011A9F1010051F8200018B32E
:100EC0000320A9490968C880A9F10101601C00F04C
:100ED0001FFDA8480078401CA64908700846027803
:100EE000A5A101A803F022FBA64801F06DFE4FF674
:100EF000FF71002001F05EFE01AAFD21A22001F099
:100F000071F9FFF731FF13E09748006800889649B0
:100F1000096809890844944909680880924800686A
:100F20004088914909680989401A8F4909684880B1
:100F300051E2601C272806DB03208B490968C88022
:100F4000FFF712FFB6E009F10100272815DB8E48F4
:100F500000680088A0420CDC8B48006800880830DC
:100F6000A04206DB002080490968C880FFF7FCFE2C
:100F7000A0E00120854908709CE0601C00EB800027
:100F80007B4901EB401050F8290010B3032076494B
:100F90000968C8804946601C00F0BAFC75480078B2
:100FA000401C744908700846027873A101A803F038
:100FB000BDFA744801F008FE4FF6FF71002001F001
:100FC000F9FD01AAFD21A22001F00CF9FFF7CCFEEA
:100FD00070E004EB8400664901EB401109F1010067
:100FE00051F8200018B300205F490968C88009F152
:100FF0000101204600F08CFC5E480078401C5D49F1
:101000000870084602785CA101A803F08FFA5D48D9
:1010100001F0DAFD4FF6FF71002001F0CBFD01AACF
:10102000FD21A22001F0DEF8FFF79EFE42E0601CE9
:1010300000EB80004E4901EB401109F1010051F82D
:10104000200018B3022048490968C88009F101014D
:10105000601C00F05DFC47480078401C4549087062
:101060000846027844A101A803F060FA454801F05F
:10107000ABFD4FF6FF71002001F09CFD01AAFD21A0
:10108000A22001F0AFF8FFF76FFE13E036480068CA
:101090000088354909680989084433490968088086
:1010A00031480068408830490968098908442E4958
:1010B000096848808FE1601E002806DC00202A496C
:1010C0000968C880FFF750FEBFE0A9F101000028C1
:1010D00006DC032024490968C880FFF745FEB4E018
:1010E000601E00EB8000224901EB401050F82900FF
:1010F00010B300201C490968C880601E494600F0F2
:1011000007FC1C480078401C1A4908700846027801
:1011100019A101A803F00AFA1A4801F055FD4FF68B
:10112000FF71002001F046FD01AAFD21A22001F07F
:1011300059F8FFF719FE88E004EB84000C4901EB35
:101140004011A9F1010051F82000C8B3032006495D
:101150000968C880A9F10101204600F0D9FB0548C3
:101160000078401C034913E00C0100201B01002003
:10117000300100201901002053636F72653A256425
:1011800000000000E4000020080100201A010020F7
:10119000087008460278AFF2200101A803F0C6F9F2
:1011A000A04801F011FD4FF6FF71002001F002FD93
:1011B00001AAFD21A22001F015F8FFF7D5FD44E0BA
:1011C000FFE7601E00EB8000974901EB4011A9F199
:1011D000010051F8200020B3012094490968C8801B
:1011E000A9F10101601E00F093FB91480078401CBA
:1011F0008F49087008460278AFF2840101A803F015
:1012000095F9884801F0E0FC4FF6FF71002001F0ED
:10121000D1FC01AAFD21A22000F0E4FFFFF7A4FD0C
:1012200013E0824800680088804909680989401AEB
:101230007E49096808807D48006840887B490968C4
:101240000989401A794909684880C4E0601E00286D
:1012500006DC012075490968C880FFF785FDB9E003
:1012600009F10100272815DB724800680088A042B8
:101270000CDC7048006800880830A04206DB0220C1
:101280006A490968C880FFF76FFDA3E001206A4939
:1012900008709FE0601E00EB8000634901EB401086
:1012A00050F8290018B3012060490968C880601E01
:1012B000494600F02DFB5E480078401C5C490870F0
:1012C00008460278AFF2501101A803F02FF95548F3
:1012D00001F07AFC4FF6FF71002001F06BFC01AACF
:1012E000FD21A22000F07EFFFFF73EFD72E004EB3F
:1012F00084004D4901EB401109F1010051F8200033
:1013000020B3022049490968C88009F1010120463B
:1013100000F0FEFA46480078401C4549087008462F
:101320000278AFF2AC1101A803F000F93D4801F0DA
:101330004BFC4FF6FF71002001F03CFC01AAFD219F
:10134000A22000F04FFFFFF70FFD43E0601E00EB0F
:101350008000354901EB401109F1010051F82000EE
:1013600020B3022031490968C880601E09F10101DB
:1013700000F0CEFA2E480078401C2D49087008462F
:101380000278AFF20C2101A803F0D0F8254801F053
:101390001BFC4FF6FF71002001F00CFC01AAFD219F
:1013A000A22000F01FFFFFF7DFFC13E01F480068DA
:1013B00000881E4909680989401A1C490968088083
:1013C0001A4800684088194909680989084417497A
:1013D0000968488000BF00BF144909688888FFF782
:1013E00047F907460022154BFFF752F80546FFF76D
:1013F00079F91FFA80FA0D4A1268528802EB42020C
:10140000032303EB420291B2084A1268128802EBEE
:10141000420203EB420290B20123524600F03CFF2D
:1014200000BFAEE4E4000020300100200C010020E9
:1014300019010020080100201A0100200000E03FEF
:1014400038B500240120154A00901268528802EB3A
:1014500042024FF6FF7303EA4201104A12681288F3
:1014600002EB420203EA42000623302201F016F8A2
:1014700000BF0FE00121094800680088204400EB0C
:101480008000074A02EB4010044A1268528840F874
:101490002210641C082CEDDB38BD00000801002080
:1014A0003001002010B5062003F022FB0649086039
:1014B0001220096808802720034909684880032012
:1014C00001490968888010BD0801002008B55D4801
:1014D0000078E0B35C4800784C2840D15B48006855
:1014E000008801283ADD4FF6FF714FF4FC6001F0EF
:1014F00061FB564A1268528802EB42024FF6FF73B4
:1015000003EA4201514A1268128802EB4202302378
:1015100003EB420290B206231A4600F081FD4B48CD
:1015200000680088401E4949096808800120474A30
:1015300000901268528802EB42024FF6FF7303EAF2
:101540004201424A1268128802EB420200E006E0C1
:1015500003EA420006231A4600F0A0FF47E039489C
:101560000078E0B338480078522840D13748006806
:1015700000880A3028283ADA4FF6FF714FF4FC60F1
:1015800001F018FB314A1268528802EB42024FF612
:10159000FF7303EA42012D4A1268128802EB4202ED
:1015A00003EA420006231A4600F03AFD2748006885
:1015B0000088401C2549096808800120234A0090C2
:1015C0001268528802EB42024FF6FF7303EA4201AF
:1015D0001E4A1268128802EB4202302300E006E045
:1015E00003EB420290B206231A4600F057FF184858
:1015F0000078012825D14FF6FF714FF4784001F0B3
:10160000D9FA144801F0E0FA13A278210C2000F076
:10161000E9FD144801F0D8FA13A29D21402000F002
:10162000E1FD00220121144801F0DBFF00BF02F0C0
:101630000BFC0128FBD1062001F048FB00200449E7
:10164000087008BD1B0100201801002008010020BF
:101650001A010020F400002047616D65206F766557
:1016600072000000E4000020B5E3BBF7C8CED2E270
:10167000B4A6BFAACABC00000010004000BFFEE72D
:1016800038B505460C460020009001F0CFFC012241
:101690009102684601F010FC9DF80000A52801D0D9
:1016A000012000E00020012C01D1012100E00021F7
:1016B000084308B39DF80000A52806D1012C04D1E9
:1016C000C022E102104801F0F7FB00BF284602F0FB
:1016D00071FC0028FAD0002001F056FDA5200090F2
:1016E00001229102684601F00FFCC0224FF4006114
:1016F000054801F009FC05E0C0224FF400610248F2
:1017000001F0DAFB38BD000014000020044909781C
:1017100009B9012100E00021014A11707047000061
:101720001B010020014608468268032A06D10E4AA2
:101730001278442A02D055220B4B1A708268012A73
:1017400006D1094A1278552A02D04422064B1A7053
:10175000826812B94C22044B1A708268022A02D1A4
:101760005222014B1A7070471801002021B1026803
:1017700042F00102026004E002684FF6FE731A4074
:101780000260704701684FF6FE721140016000214F
:10179000016041608160C1604B49884208D14A497B
:1017A0000839496841F00F01474A083A51608AE018
:1017B00045491431884208D143490839496841F004
:1017C000F001414A083A51607DE03F4928318842A2
:1017D00008D13D490839496841F470613A4A083AEC
:1017E000516070E038493C31884208D136490839A7
:1017F000496841F47041344A083A516063E0324923
:101800005031884208D130490839496841F4702183
:101810002D4A083A516056E02B496431884208D17C
:1018200029490839496841F47001274A083A51604A
:1018300049E025497831884208D123490839496867
:1018400041F07061204A083A51603CE01F498842EB
:1018500006D1011F096841F00F01021F116032E03B
:101860001A491431884208D11849091F096841F002
:10187000F001164A121F116025E0144928318842F0
:1018800008D11249091F096841F470610F4A121FFB
:10189000116018E00D493C31884208D10B49091FFD
:1018A000096841F47041094A121F11600BE00749B1
:1018B0005031884207D10549091F096841F4702158
:1018C000024A121F116070470800024008040240DB
:1018D00010B50022026847F6F0739A430C6A8B68D1
:1018E00023430C6923434C6923438C692343CC690C
:1018F00023434C6A23438C6A23431A430260CB6818
:1019000043600B6883604B68C36010BD7047000084
:1019100070B504460D4605EB45024FF6FF7303EA2A
:10192000420104EB440203EA420006231A4600F097
:1019300077FB002004EB8401024A02EB411141F8DD
:10194000250070BD3001002001B502E00098401E66
:10195000009000980028F9D108BD000038B5002596
:101960004FF6FF714FF4FC6001F024F901241DE0F3
:10197000012518E004EB84000E4901EB401050F8FB
:10198000250001280ED105EB45024FF6FF7303EA4F
:10199000420104EB4402009003EA420005231A4688
:1019A00000F07CFD6D1C272DE4DB641C272CDFDBA5
:1019B00038BD0000300100202DE9F84305462C46D3
:1019C000207BD0B94FF6FF714CF2186001F0F2F8AD
:1019D00001200090E788B4F802C0A7EB0C07BBB267
:1019E000A788B4F800C0A7EB0C07BAB261886046BC
:1019F00000F054FD4CF2186618E04FF6FF710846EF
:101A000001F0D8F801200090E788B4F802C0A7EBF5
:101A10000C07BBB2A788B4F800C0A7EB0C07BAB29A
:101A20006188604600F03AFD4FF6FF764FF6FF7191
:101A30004FF4047001F0BEF800200090E788B4F87D
:101A400002C0A7EB0C07BBB2A788B4F800C0A7EB95
:101A50000C07BAB26188604600F020FD31460020D4
:101A600001F0A8F83F4801F0AFF8A06830B10128B4
:101A700020D002283AD0032870D153E0314600200C
:101A800001F098F8E2886388D21AA2F1100707EBF8
:101A9000D77203EB620291B2A2882388D21AA2F114
:101AA000100808EBD87203EB620290B22EA200F08D
:101AB00099FB53E03146002001F07CF8E28863880E
:101AC000D21AA2F1100707EBD77203EB620291B2B0
:101AD000A2882388D21AA2F1100808EBD87203EB6F
:101AE000620290B221A200F07DFB37E03146002077
:101AF00001F060F8E2886388D21AA2F1100707EBC0
:101B0000D77203EB620291B2A2882388D21AA2F1A3
:101B1000100808EBD87203EB620290B214A200F036
:101B200061FB1BE03146002001F044F8E288638845
:101B3000D21AA2F1100707EBD77203EB620291B23F
:101B4000A2882388D21AA2F1100808EBD87203EBFE
:101B5000620290B207A200F045FB00BF00BFBDE8E3
:101B6000F8830000E4000020D7F30000CFC200009B
:101B7000D3D20000C9CF00002DE9F84305462C461A
:101B8000207BD0B94FF6FF714CF2186001F012F8CB
:101B900001200090E788B4F802C0A7EB0C07BBB2A5
:101BA000A788B4F800C0A7EB0C07BAB261886046FA
:101BB00000F074FC4CF2186618E04FF6FF7108460E
:101BC00000F0F8FF01200090E788B4F802C0A7EB0E
:101BD0000C07BBB2A788B4F800C0A7EB0C07BAB2D9
:101BE0006188604600F05AFC4FF6FF764FF6FF71B1
:101BF0004FF4047000F0DEFF00200090E788B4F896
:101C000002C0A7EB0C07BBB2A788B4F800C0A7EBD3
:101C10000C07BAB26188604600F040FC31460020F3
:101C200000F0C8FF1B4800F0CFFF1B480078B8B198
:101C3000E2886388D21AA2F1100707EBD77203EB90
:101C4000620291B2A2882388D21AA2F1200808EB7E
:101C5000D87203EB620290B210A200F0C3FA16E051
:101C6000E2886388D21AA2F1100707EBD77203EB60
:101C7000620291B2A2882388D21AA2F1200808EB4E
:101C8000D87203EB620290B206A200F0ABFABDE894
:101C9000F8830000E40000201B010020D4DDCDA368
:101CA00000000000BCCCD0F80000000051B1820060
:101CB000A2F1C042126842F001038200A2F1C042C8
:101CC000136009E08200A2F1C0421268034B1A407F
:101CD0008300A3F1C0431A6070470000FEFF0F00AD
:101CE000D0E901121143C2681143026911434269EC
:101CF000114382691143C2691143026A1143426A66
:101D00001143826A1143C26A1143026B1143026894
:101D10009200A2F1C0421160816808290BD10168CC
:101D20008900A1F1C041096841F0400201688900C1
:101D3000A1F1C0410A60416B0968426B526841EAF7
:101D40000211426B926841EA0221426B928941EA98
:101D50000241426B128A41EA0251426B127D41EA12
:101D60000261426B926911430268521C9200A2F117
:101D7000C0421160C16AB1F5804F1BD1816B096807
:101D8000826B526841EA0211826B926841EA022139
:101D9000826B128A41EA0251826B127D41EA026132
:101DA000826B9269114302689200A2F1C042C2F8AC
:101DB000041107E06FF0704201688900A1F1C04191
:101DC000C1F8042170472DE9F041024600250026A4
:101DD000002000230024002791F803C00CF00F0519
:101DE00091F803C00CF0100CBCF1000F03D091F877
:101DF00002C04CEA050591F800C0BCF1000F31D0DB
:101E0000146800202BE04FF0010C0CFA00F3B1F83D
:101E100000C00CEA03069E4220D183004FF00F0C55
:101E20000CFA03F7BC4305FA03FC4CEA040491F8EE
:101E300003C0BCF1280F06D14FF0010C0CFA00FCD6
:101E4000C2F814C00AE091F803C0BCF1480F05D1F4
:101E50004FF0010C0CFA00FCC2F810C0401C08281E
:101E6000D1D31460B1F800C0BCF1FF0F34DD546869
:101E700000202EE000F1080C4FF0010808FA0CF3E6
:101E8000B1F800C00CEA03069E4221D183004FF056
:101E90000F0C0CFA03F7BC4305FA03FC4CEA0404EC
:101EA00091F803C0BCF1280F05D100F1080C08FA25
:101EB0000CF8C2F8148091F803C0BCF1480F07D1A8
:101EC00000F1080C4FF0010808FA0CF8C2F8108075
:101ED000401C0828CED35460BDE8F08102460020A3
:101EE00093680B400BB1012000E000207047416176
:101EF000704701617047000010B501200DE001211D
:101F000008E0012201EB8103064C04EB431343F884
:101F10002020491C2729F4DB401C034A12889042E8
:101F2000EDDD10BD300100200401002038B5012096
:101F3000F023062200210090084600F0AFFA0120AD
:101F4000F023062200210090EA2000F0A7FA0120E9
:101F50000623F02200210090184600F09FFA00248A
:101F600004E001200D4941F82400641C282CF8DB12
:101F7000002404E001210A4840F82410641C282CA5
:101F8000F8DB002407E0012004EB8401034A02EBA4
:101F900041110860641C282CF5DB38BD300100209D
:101FA000901900202DE9F04180460C461048007839
:101FB00020B901F03BF801200D4908702512E6B266
:101FC000A5F1A101C1EB011202EB411106EB4101A8
:101FD000A1390802C11700EB5171CF10054839181B
:101FE0002022404600F068FF0020BDE8F08100009C
:101FF000FC0000200030180000BFFEE710B50446CA
:102000002CB14FF480510548FFF771FF04E04FF405
:1020100080510248FFF76DFF10BD00000014014021
:102020002DE9F04106460F4614461D462B46224632
:102030003946304600F0F2FB04FB05F002490988FE
:1020400000F09FFABDE8F0811200002001B502E027
:102050000098401E009000980028F9D108BD0000AB
:102060002DE9F04389B080468946174610231A4669
:102070004946404600F0D2FB2C2000F051FD394685
:1020800001A8FFF78FFF002422E001A810F81460D8
:102090004FF6FF7000EA0626012000EB440001A97C
:1020A000085C064300250FE04FF400402841304013
:1020B00020B10A48008800F037FD03E00848008896
:1020C00000F032FD681CC5B2102DEDDB601CC4B2FF
:1020D000102CDADB09B0BDE8F0830000100000200E
:1020E000120000202DE9F05F804689461646A6F1D1
:1020F00020001FFA80FA1E49096889881C4A126864
:10210000D28801FB02F0C11700EB5171C1F3C70780
:102110001748006800680AFB070B15480068C38869
:102120001348006882884946404600F077FB2C201F
:1021300000F0F6FC002416E0002510E01BF8040077
:1021400080212941084020B10A48008800F0ECFCB9
:1021500003E00948008800F0E7FC681CC5B2082DC0
:10216000ECDB601CC4B2BC42E6DBBDE8F09F0000C3
:102170000C000020100000201200002070B5044662
:102180000D46002624E03046134909688988084432
:1021900012490988884205DD00260F480068C0887A
:1021A000204484B220460C490968C98808440C4977
:1021B0000988884201DD002600242A78214630461D
:1021C000FFF790FF6D1C044800688088304486B299
:1021D00028780028D7D170BD0C0000200400002012
:1021E000060000202DE9F04105460E46144648E061
:1021F00020787E2825DC28462449096889880844F7
:1022000023490988884205DD002520480068C088E8
:10221000304486B230461D490968C98808441D49C2
:102220000988884201DD00250026227831462846AB
:10223000FFF758FF154800688088284485B2641C61
:102240001FE02846103012490988884203DD002526
:1022500006F1100086B2304610300E4909888842D7
:1022600001DD002500262788380200EB272087B2F1
:102270003A4631462846FFF7F3FE05F1100085B2D5
:10228000A41C20780028B3D1BDE8F0810C00002008
:1022900004000020060000202DE9F05F05460E46F0
:1022A00091469B4600240FFA89F70320A0EB4900D2
:1022B0000FFA80FA87E0BBF1000F40D0A0463BE068
:1022C00006EB080291B22A1990B200F00DFC06EB61
:1022D000080291B22A1B90B200F006FC321991B2AA
:1022E000A5EB080290B200F0FFFB321B91B2A5EB08
:1022F000080290B200F0F8FBA6EB080291B22A1B8C
:1023000090B200F0F1FBA6EB080291B22A1990B24C
:1023100000F0EAFB321B91B205EB080290B200F02C
:10232000E3FB321991B205EB080290B200F0DCFB3E
:1023300008F101000FFA80F8B845C1DD2FE0F2196D
:1023400091B22A1990B200F0CFFBF21991B22A1B78
:1023500090B200F0C9FB321991B2EA1B90B200F0C2
:10236000C3FB321B91B2EA1B90B200F0BDFBF21B23
:1023700091B22A1B90B200F0B7FBF21B91B22A195E
:1023800090B200F0B1FB321B91B2EA1990B200F0AA
:10239000ABFB321991B2EA1990B200F0A5FB601CB8
:1023A00004B2BAF1000F05DAA000801D50440FFA04
:1023B00080FA07E0E01B80000A3050440FFA80FAF0
:1023C000781E07B200BFBC427FF775AFBDE8F09F33
:1023D00070B504460D4604F10A018AB2143988B278
:1023E0002B46294600F00AF805F10A0083B214389A
:1023F00081B22246204600F001F870BD2DE9FF4F62
:1024000083B081464FF0000AD3460598A0EB09053A
:1024100004990698461ACDF8049004980090002D6F
:1024200001DD012705E00DB9002702E04FF0FF377D
:102430006D42002E02DD4FF0010806E016B94FF0A4
:10244000000802E04FF0FF387642B54201DD2C462D
:1024500000E034460020029019E0DDE9001000F0B1
:1024600043FBAA44B344A24505DDAAEB040A019844
:10247000384480B20190A34505DDABEB040B009816
:10248000404480B200900298401C80B20290611CCF
:1024900002988842E1DD07B0BDE8F08F2DE9F041F8
:1024A00004460D4616461F46DDF81880B8F1000FA9
:1024B0000CD03B4632462946204600F0AFF906FBD9
:1024C00007F01749098800F05CF827E0A019401EC2
:1024D00082B22B4629462046FFF790FFE819401E9E
:1024E00083B2A019401E82B2E819401E81B2204674
:1024F000FFF784FFE819401E83B222462946204692
:10250000FFF77CFFE919491E8BB2A119491E8AB257
:10251000A119491E88B22946FFF770FFBDE8F08176
:102520001000002000B597B00121080200F088FCDF
:102530000120019004200390800607900020029063
:102540000490059006900890099008200A901020A9
:102550000B9000200C900E900F9010904FF4805034
:102560001190002012901390149001A815901690CD
:1025700008A8FFF7B5FB01210020FFF797FB17B074
:1025800000BD70B504460D4600262C2000F0C8FAA8
:1025900000BF03E0284600F0C7FA761CA642F9D334
:1025A00070BD000008B50121602000F069FC032027
:1025B0008DF8020018208DF803004FF48040ADF82C
:1025C000000069465B48FFF7FEFB4FF40040ADF8A2
:1025D000000069465748FFF7F6FB0120ADF8000000
:1025E00069465448FFF7EFFB0220ADF8000069464A
:1025F0005048FFF7E8FB8020ADF8000069464E48E0
:10260000FFF7E1FB4FF48070ADF8000069464A48DF
:10261000FFF7D9FB4FF40070ADF80000694646485B
:10262000FFF7D1FB4FF48060ADF8000069464248E7
:10263000FFF7C9FB4FF40060ADF8000069463E4863
:10264000FFF7C1FB4FF48050ADF8000069463A48EF
:10265000FFF7B9FB4FF40050ADF80000694636486B
:10266000FFF7B1FB4FF48040ADF8000069463248F7
:10267000FFF7A9FB4FF40040ADF8000069462E4873
:10268000FFF7A1FB4FF48070ADF8000069462948C0
:10269000FFF799FB4FF40070ADF80000694625483C
:1026A000FFF791FB4FF48060ADF8000069462148C8
:1026B000FFF789FB03208DF8020018208DF8030036
:1026C0001020ADF8000069461A48FFF77CFB202077
:1026D000ADF8000069461748FFF775FB8020ADF89C
:1026E000000069461348FFF76EFB4FF40060ADF839
:1026F000000069460F48FFF766FB10208DF80300C5
:1027000003208DF802000220ADF8000069460A4857
:10271000FFF759FB10208DF8030003208DF802000D
:102720004FF48050ADF8000069460248FFF74BFBBC
:1027300008BD0000001401400018014010B5044617
:10274000072C00DD10BD28480470204604EBD07132
:102750004910A4EB410139B9F020244908804FF415
:10276000A0702349088006E04FF4A0701F4908803C
:10277000F0201F490880362000F0D2F9082141EAF4
:10278000441000F0D1F92A2000F0CAF9002000F02E
:10279000CBF9002000F0C8F914490988491EC1F39B
:1027A000072000F0C1F911490978491EC8B200F0AC
:1027B000BBF92B2000F0B4F9002000F0B5F900209F
:1027C00000F0B2F90A490988491EC1F3072000F058
:1027D000ABF907490978491EC8B200F0A5F92C20C9
:1027E00000F09EF900BFADE70800002004000020C3
:1027F0000600002010B5FFF7D5FEFFF793FE01207D
:10280000FFF7FCFB00F052F900F038F802480078BE
:10281000FFF794FF10BD0000080000202DE9F041F3
:1028200004460D4616461F462A2000F079F920126C
:1028300000F07AF9E0B200F077F9A119491EC1F36E
:102840000F2000F071F9A119491EC8B200F06CF90F
:102850002B2000F065F9281200F066F9E8B200F0CC
:1028600063F9E919491EC1F30F2000F05DF9E91978
:10287000491EC8B200F058F9BDE8F08110B5CF206C
:1028800000F04EF9002000F04FF9812000F04CF9E3
:10289000302000F049F9ED2000F042F9642000F00A
:1028A00043F9032000F040F9122000F03DF98120A7
:1028B00000F03AF9E82000F033F9852000F034F90F
:1028C000102000F031F9782000F02EF9CB2000F034
:1028D00027F9392000F028F92C2000F025F90020F4
:1028E00000F022F9342000F01FF9022000F01CF95A
:1028F000F72000F015F9202000F016F9EA2000F08A
:102900000FF9002000F010F9002000F00DF9B120BF
:1029100000F006F9002000F007F91B2000F004F990
:10292000B62000F0FDF80A2000F0FEF8A22000F02A
:10293000FBF8C02000F0F4F8352000F0F5F8C120D5
:1029400000F0EEF8112000F0EFF8C52000F0E8F8F4
:10295000452000F0E9F8452000F0E6F8C72000F037
:10296000DFF8A22000F0E0F8F22000F0D9F8002013
:1029700000F0DAF8262000F0D3F8012000F0D4F8B7
:10298000E02000F0CDF80F2000F0CEF8262000F077
:10299000CBF8242000F0C8F80B2000F0C5F80E207A
:1029A00000F0C2F8092000F0BFF8542000F0BCF895
:1029B000A82000F0B9F8462000F0B6F80C2000F08E
:1029C000B3F8172000F0B0F8092000F0ADF80F20A0
:1029D00000F0AAF8072000F0A7F8002000F0A4F803
:1029E000E12000F09DF8002000F09EF8192000F092
:1029F0009BF81B2000F098F8042000F095F81020B8
:102A000000F092F8072000F08FF82A2000F08CF8F0
:102A1000472000F089F8392000F086F8032000F004
:102A200083F8062000F080F8062000F07DF83020C2
:102A300000F07AF8382000F077F80F2000F074F8F2
:102A4000362000F06DF8C82000F06EF82A2000F063
:102A500067F8002000F068F8002000F065F800201A
:102A600000F062F8EF2000F05FF82B2000F058F83B
:102A7000002000F059F8002000F056F8012000F086
:102A800053F83F2000F050F83A2000F049F8552064
:102A900000F04AF8112000F043F80348FFF7D6FA97
:102AA000292000F03DF810BDFCBF020010B5022146
:102AB0000748FFF71CFA40F6FF20FFF7C7FA02218C
:102AC0000348FFF716FA40F6FF20FFF7BFFA10BDE4
:102AD0000018014070B504460D4601231A462946E8
:102AE0002046FFF79BFE70BD70B505460C460948B1
:102AF000008885420CDA08480088844208DA2146BA
:102B00002846FFF7E7FF054801880120FFF739FD58
:102B100070BD00000400002006000020100000200E
:102B20004FF0C0410880704701490880704700009D
:102B30000000026008B50121142000F0A1F9012075
:102B4000ADF8000004208DF8030069460748FFF740
:102B50003AF94FF40050ADF8000004208DF803005E
:102B600069460348FFF72FF908BD0000000801403F
:102B70000010014070B504460D4629462046FFF777
:102B8000ADF9012808D100BF29462046FFF7A6F974
:102B90000128F9D0012070BD0020FCE70148006841
:102BA000704700000C0000200149088070470000B9
:102BB00012000020024A1080024A11807047000073
:102BC000100000201200002001490860704700003A
:102BD0000C00002001490880704700001000002010
:102BE00008B50121082000F04BF92020ADF80000C5
:102BF00010208DF8030003208DF8020069460F486D
:102C0000FFF7E1F80120ADF8000069460B48FFF737
:102C1000DAF80220ADF8000069460848FFF7D3F85B
:102C200020210648FFF765F901210448FFF761F903
:102C300002210248FFF75DF908BD0000000C0140C9
:102C400000BFFEE77047000070B5002100230F228F
:102C5000C47804B3154C246804F4E064C4F5E0645B
:102C6000210AC1F10403CA40447804FA03F18478CC
:102C70001440214309010E4C0678A155047804F054
:102C80001F050124AC4005786D11AD0005F1E0256C
:102C9000C5F8004109E0047804F01F050124AC40A8
:102CA000044D0678761145F8264070BD0CED00E025
:102CB00000E400E080E100E002490143024A1160C3
:102CC000704700000000FA050CED00E070B5054605
:102CD000FDF74AFF2846FFF731FD00201E49087026
:102CE0004C201E4908704FF6FF70FFF75DFF1C482F
:102CF00003881C48028800210846FFF791F900F07C
:102D000027FD00F0CDFBFFF711F9FFF7F5F80121E2
:102D10000846FEF7FDFDFEF721FEFEF7C3FBFEF7BA
:102D20008FFBFEF705F8FDF7D7FF012211460E488D
:102D300000F057FC00240CE004EB44020B4B03EBC7
:102D4000C20004EB440203EBC20211698847601C15
:102D5000C4B2052CF0DB70BD190100201801002061
:102D6000060000200400002000100040301A00205F
:102D700070B50546FDF7F8FE2846FFF7DFFC00209A
:102D8000174908704C20174908704FF6FF70FFF77D
:102D90000BFF154803881548028800210846FFF7F5
:102DA0003FF900F0D5FC00F07BFB00F037FB01227F
:102DB00011460F4800F015FC00240CE004EB44021F
:102DC0000C4B03EBC20004EB440203EBC20211699B
:102DD0008847601CC4B2052CF0DB01F071FD70BDAA
:102DE0001901002018010020060000200400002026
:102DF00000100040301A00207047000010B5FEF7A8
:102E000065FBFDF7B1FF4FF6FF714FF4FC60FFF774
:102E1000D1FE4FF6FF70FFF7C7FE0248FEF794FDA4
:102E200010BD0000FFFF0F0001460020034A50685C
:102E300020F44040084350607047000000100240FA
:102E400029B1064A52690243044B5A6104E0034A1D
:102E500052698243014B5A617047000000100240E2
:102E600029B1064AD2690243044BDA6104E0034AFD
:102E7000D2698243014BDA617047000000100240C2
:102E800029B1064A92690243044B9A6104E0034A5D
:102E900092698243014B9A61704700000010024022
:102EA00021B1028842F04002028004E002884FF61D
:102EB000BF731A400280704770B505460C4616462F
:102EC00001211048FFF713F8032000F07FF9C4F345
:102ED000074000F07BF9C4F3072000F077F9E0B277
:102EE00000F074F904E0FF2000F070F928706D1C08
:102EF0003000A6F101018EB2F5D101210148FEF7A3
:102F0000F8FF70BD001001402DE9F05F07460E4646
:102F100014464FF00008C146C2460025AB4606F0F5
:102F2000FF0ACAF10000C5B22046E11704EB1161A7
:102F3000C1F30728E11704EB11610912A4EB012189
:102F400001F0FF09BAF1000F20D1B8F1000F05D14F
:102F500022463146384600F0C9F864E009E04FF4F3
:102F600080723146384600F0C1F806F5807607F5E4
:102F700080775FEA0800A8F1010101F0FF08EED1B7
:102F80004A463146384600F0B1F84CE0B8F1000F3F
:102F900018D1A94510DDA9EB050000F0FF0B2A466A
:102FA0003146384600F0A2F82E442F445A463146A6
:102FB000384600F09BF836E022463146384600F0AD
:102FC00095F830E0601B84B22046E11704EB1161F4
:102FD000C1F30728E11704EB11610912A4EB0121E9
:102FE00001F0FF092A463146384600F07FF82E44AA
:102FF0002F4409E04FF480723146384600F076F8ED
:1030000006F5807607F580775FEA0800A8F10101F0
:1030100001F0FF08EED1B9F1000F04D04A46314665
:10302000384600F063F8BDE8F09F000000B587B0B7
:1030300001210803FFF724FF0121D420FFF720FF1F
:103040000120ADF8040003208DF8060010208DF853
:10305000070001A92248FEF7B6FE2020ADF80400C3
:1030600018208DF8070001A91E48FEF7ACFE40208D
:10307000ADF8040001A91B48FEF7A5FE8020ADF8BD
:10308000040001A91748FEF79EFE01211448FEF72F
:1030900030FF0020ADF808004FF48270ADF80A0050
:1030A0000020ADF80C000220ADF80E000120ADF8B4
:1030B00010004002ADF812000820ADF81400002006
:1030C000ADF816000720ADF8180002A9064800F078
:1030D000F1F801210448FFF7E3FE07B000BD00004E
:1030E00000100140000801400030014070B5054665
:1030F0000C46164600F0C0F801211548FEF7F7FE11
:10310000022000F063F8C4F3074000F05FF8C4F356
:10311000072000F05BF8E0B200F058F8B6F5807FC9
:1031200004DD4FF480760BA001F0F0F903E028787D
:1031300000F04CF86D1C3000A6F101018EB2F6D102
:1031400001210348FEF7D5FE00F07CF870BD0000B9
:10315000001001403C3C2D464C4153482D455252F5
:103160004F522D3E3E205350495F464C4153485FDD
:1031700050616765577269746520746F6F206C6168
:10318000726765210A00000010B5044600F074F86B
:1031900000F058F801210C48FEF7A9FE202000F0AD
:1031A00015F8C4F3074000F011F8C4F3072000F04D
:1031B0000DF8E0B200F00AF801210348FEF799FE8D
:1031C00000F040F810BD00000010014010B50446AA
:1031D0004FF48050194908600AE018490868411EF8
:1031E000164A116020B9002000F082F8C0B210BD6C
:1031F0000221134800F050F80028EED02146104874
:1032000000F056F84FF480500C4908600AE00B4972
:103210000868411E094A116020B9012000F068F8D1
:10322000C0B2E4E70121064800F036F80028EED0ED
:10323000034800F03AF8C0B2D9E7000000000020CF
:103240000030014010B5002401210A48FEF74FFE6E
:103250000520FFF7BBFF00BFFF20FFF7B7FF0446C5
:1032600004F001000028F7D101210248FEF741FED9
:1032700010BD00000010014010B501210548FEF707
:1032800036FE0620FFF7A2FF01210248FEF731FEBD
:1032900010BD0000001001400246002013890B40C1
:1032A0000BB1012000E0002070470146888970477B
:1032B0008181704710B50022028802F441520B88C8
:1032C0004C8823438C882343CC8823430C89234395
:1032D0004C8923438C892343CC8923431A4302809E
:1032E000838B4FF2FF74234083830B8A038210BDCC
:1032F00010B50446214602A001F008F9002010BDD7
:103300003C3C2D464C4153482D4552524F522D3E88
:103310003E2053504920B5C8B4FDB3ACCAB12165B5
:1033200072726F72436F6465203D2025640A00004D
:10333000704710B500F002F810BD00000CB5002079
:10334000019000903348006840F4803031490860B3
:1033500000BF3048006800F4003000900198401C25
:103360000190009818B90198B0F5A06FF1D12948E3
:10337000006800F4003010B10120009001E000204E
:1033800000900098012843D12348006840F01000C5
:10339000214908600846006820F0030008600846DC
:1033A000006840F0020008601A4840681949486007
:1033B0000846406848600846406840F480604860BD
:1033C0000846406820F47C1048600846406840F495
:1033D000E81048600846006840F08070086000BF50
:1033E0000C48006800F000700028F9D009484068D7
:1033F00020F00300074948600846406840F002009A
:10340000486000BF0348406800F00C000828F9D16C
:103410000CBD0000001002400020024038B50C2016
:1034200001F066FB04461E2020600A206060002038
:10343000A060012512E00C2001F05AFB174908603A
:10344000084600688460C5F11E00096808600A200B
:10345000124909684860114804686D1C042DEADDB2
:1034600018E04FF6FF714FF4FC60FFF7A3FB01205B
:103470000090626802EB42024FF6FF7303EA4201DA
:10348000226802EB420203EA420006231A46FFF7D3
:1034900005F8A468A0680028E3D138BD1001002019
:1034A00008B54FF6FF711F20FFF784FBF0231A4683
:1034B00019460020FEF7A2FF4FF6FF710846FFF7FE
:1034C00079FB012027235022F2210090A020FEF753
:1034D000E5FF4FF6FF710020FFF76CFB0B48FFF78D
:1034E00073FB0BA2FD21A220FEF77CFE4FF6FF71BD
:1034F0004FF40470FFF75EFB002027235022F221D7
:103500000090A020FEF7CAFF08BD0000E4000020E4
:1035100053636F72653A30007047000010B513486E
:10352000006840F0010011490860084640681049F1
:1035300008400E494860084600680E4908400B499B
:1035400008600846006820F480200860084640684B
:1035500020F4FE0048604FF41F008860FFF7E9FE8A
:103560004FF000600449086010BD000000100240E8
:103570000000FFF8FFFFF6FE08ED00E010B50121A6
:10358000054800F01DF828B100F0CAFC01210248EE
:1035900000F007F810BD000000100040CA4302828E
:1035A0007047CA430282704721B1028842F001028B
:1035B000028004E002884FF6FE731A4002807047D2
:1035C00030B50246002000230024158A05EA0103D5
:1035D000958905EA010413B10CB1012000E0002037
:1035E00030BD1AB183890B43838102E083898B4309
:1035F00083817047002202881D4B98420ED01D4BDC
:1036000098420BD0B0F1804F08D01B4B984205D0A8
:103610001A4B984202D01A4B984204D14FF68F733E
:103620001A404B881A43174B984207D0164B9842C2
:1036300004D04FF6FF431A40CB881A4302808B8890
:1036400083850B8803850A4B98420BD0094B98421F
:1036500008D00E4B984205D00D4B984202D00D4B2E
:10366000984201D10B7A03860123838270470000C0
:10367000002C0140003401400004004000080040DC
:10368000000C0040001000400014004000400140C9
:10369000004401400048014070B505460E46002434
:1036A00050E004EB4400294901EBC0008088A842A7
:1036B0002CDB04EB440001EBC000C088B04225DBEA
:1036C00004EB440001EBC0004088B0421EDC04EB78
:1036D000440031F83000A84218DC04EB440001EB50
:1036E000C000007B60BB012004EB4401174A02EBE1
:1036F000C101087304EB4402144B03EBC20004EB5A
:10370000440203EBC2021169884719E004EB44004C
:103710000E4901EBC000007B012811D1002004EB11
:1037200044010A4A02EBC101087304EB4402074B4F
:1037300003EBC20004EB440203EBC20211698847A9
:10374000601CC4B2052CACDB70BD0000301A002038
:1037500000203449088040F21910488050208880A9
:103760008000C8800020886008732F4808612F48B7
:1037700048615020088340F219112A484183A02152
:1037800081834900C18301210162002180F8241056
:10379000254981622549C162A0202249088640F25C
:1037A000191120484186F02181864FF4A071C1860D
:1037B00002218163002180F83C101B4901641B49F0
:1037C000416450201749A1F84800F2211548A0F89B
:1037D0004A10A021A0F84C1040F21911A0F84E1088
:1037E00003210165002180F854100F4981650F49BC
:1037F000C16500200B49A1F86000F2210948A0F83A
:1038000062105021A0F8641040F21911A0F866105F
:103810000021816680F86C10054901670549416700
:1038200070470000301A0020B91900082517000859
:10383000791B00080D17000870B505460E460024D8
:103840003BE004EB44001F4901EBC0008088A84224
:1038500031DD04EB440031F83000A8422BDA04EBF0
:10386000440001EBC000C088B04224DD04EB4400FA
:1038700001EBC0004088B0421DDA002004EB440197
:10388000104A02EBC101087304EB44020D4B03EB39
:10389000C20004EB440203EBC2025169884704EB07
:1038A0004402084B03EBC20004EB440203EBC202E8
:1038B0001169884703E0601CC4B2052CC1DB00BF5E
:1038C00070BD0000301A002002460020B1F5007FD4
:1038D00000D100BF13880B400BB1012000E0002095
:1038E0007047C1F308028280704700BFFEE72DE9F0
:1038F000F04105460C4616460127B4F90010B4F90C
:103900001020891AB4F90A30B4F912209A1A5143D6
:10391000B4F90820B4F91030D31AB4F902C0B4F9DC
:103920001220ACEB020203FB1210FCF798FEB06110
:103930000021B069FCF71EFF01D10027C3E0B5F9F3
:103940000010B5F91020891AB4F90A30B4F9122020
:103950009A1A5143B5F90820B5F91030D31AB4F9C1
:1039600002C0B4F91220ACEB020203FB1210FCF708
:1039700076FE3060B4F90010B4F91020891AB5F958
:103980000820B5F91030D21A5143B5F90020D21AE7
:10399000B4F90830B4F910C0A3EB0C0302FB131008
:1039A000FCF75DFE7060B4F91010B5F908205143C2
:1039B000B4F90820B5F9103002FB1311B4F9022054
:1039C0005143B4F900205A43B4F91030B5F900C09E
:1039D00003FB1C23B4F90A2003FB0212B4F90810FC
:1039E00001FB0CF1B4F90030B5F908C003FB1C135E
:1039F000B4F9121003FB0120FCF731FEB060B5F9F9
:103A00000220B5F91210511AB4F90A30B4F9122093
:103A10009A1A5143B5F90A30B5F912209B1AB4F934
:103A200002C0B4F91220ACEB020203FB1210FCF747
:103A300016FEF060B4F90010B4F91020891AB5F937
:103A40000A30B5F912209A1A5143B5F90230B5F986
:103A500012209A1AB4F90830B4F910C0A3EB0C0381
:103A600002FB1310FCF7FBFD3061B4F91010B5F93F
:103A70000A205143B4F90830B5F9122003FB1211A2
:103A8000B4F902205143B4F90020B5F912305A4379
:103A9000B4F91030B5F902C003FB1C23B4F90A20B5
:103AA00003FB0213B4F9081001FB0CF1B4F900C0D8
:103AB000B5F90A200CFB1212B4F9121002FB013006
:103AC000FCF7CDFD70613846BDE8F08101B50020FE
:103AD00007E00C2100BF0A00A1F10103D9B2FAD11D
:103AE000401C00998842F4D308BD00002DE9FC5F1A
:103AF00005460C460126684600F0BEF8002865D051
:103B0000BDF90200FCF7ABFD83463248007800EBBC
:103B1000400004EBC00041685846FCF7A8FB814612
:103B2000BDF90000FCF79BFD83462A48007800EBB6
:103B3000400054F830105846FCF799FB824649463D
:103B4000FCF73DFB80462348007800EB400004EB87
:103B5000C00081684046FCF732FB0746FCF795FD44
:103B600000B22880BDF90200FCF779FD83461948B0
:103B7000007800EB400004EBC00001695846FCF7F8
:103B800076FB8146BDF90000FCF769FD83461148CC
:103B9000007800EB400004EBC000C1685846FCF719
:103BA00066FB82464946FCF70AFB804609480078D6
:103BB00000EB400004EBC00041694046FCF7FFFA0F
:103BC0000746FCF762FD00B2688000E00026304640
:103BD000BDE8FC9F0800002008B501216020FFF728
:103BE0004FF90120ADF800008DF8020010208DF88B
:103BF000030069461A48FEF7E6F80420ADF8000015
:103C000069461748FEF7DFF80820ADF800000120EC
:103C10008DF8020048208DF8030069461048FEF731
:103C2000D2F84FF40050ADF8000001208DF80200EA
:103C300010208DF8030069460A48FEF7C4F84FF4D7
:103C400000510848FEF753F91020ADF80000482055
:103C50008DF8030069460248FEF7B5F808BD00007C
:103C6000001801400014014010B50446204600F041
:103C70001BFC00F0C1F810BD2DE9F0478CB00646E2
:103C8000002528216846FCF788FA00BF0AA90BA87E
:103C900000F09EF8BDF92C002DF81500BDF9281094
:103CA00005A820F81510681CC5B210214648FEF77B
:103CB00015F908B90A2DE9DB10214348FEF70EF982
:103CC00010B10020414908700A2D7BD1BDF9007068
:103CD000B846BDF91490CA4601240EE03DF914001F
:103CE000B84202DA3DF9147005E03DF91400404590
:103CF00001DD3DF91480601CC4B20A2CEEDB012406
:103D000012E005A830F91400484503DA05A830F997
:103D1000149007E005A830F91400504502DD05A80D
:103D200030F914A0601CC4B20A2CEADBBDF9000013
:103D3000BDF902100844BDF904100844BDF906108D
:103D40000844BDF908100844BDF90A100844BDF93B
:103D50000C100844BDF90E100844BDF910100844B9
:103D6000BDF912100844C01BA0EB0800C01000B23F
:103D70003080BDF91410BDF916000144BDF91800DA
:103D80000144BDF91A000144BDF91C000144BDF90C
:103D90001E000144BDF920000144BDF92200014488
:103DA000BDF924000144BDF926000844A0EB090038
:103DB000A0EB0A00C01000B2708001200CB0BDE87A
:103DC000F087FFE70020F9E700180140D400002049
:103DD0002DE9F04104460D469020FFF745FF06B25D
:103DE0000120FFF773FED020FFF73EFF07B22680C9
:103DF0002F80BDE8F081000070B500250421114836
:103E0000FEF775F801210F48FEF773F8002414E05F
:103E100001210C48FEF76BF808210A48FEF75EF80E
:103E20000646C4F10B0006FA00F0284385B20121D2
:103E30000448FEF75EF8601CC4B20C2CE8DB284690
:103E400070BD00000018014010B50024274800781C
:103E500020B1012811D002283FD12FE010212448A1
:103E6000FEF73CF820B9012020490870002403E047
:103E700000201E490870002434E010211C48FEF781
:103E80002DF8A0B91B480068401C1A490860084674
:103E90000068022806D90020086002201349087033
:103EA00001240AE0012011490870002405E00020E7
:103EB000104908600D490870002413E010210C48D7
:103EC000FEF70CF820B9022008490870012403E02D
:103ED000002006490870002404E00020034908700F
:103EE000002400BF00BF204610BD0000D500002008
:103EF00000180140D800002010B50446B4F90400B1
:103F0000401C20B9B4F90400401C00B910BD6288FF
:103F100091B2228890B2FFF7BFFB00BFF6E7000026
:103F200010B5FFF791FF012817D120201449086030
:103F30000120091D08600220091F0860114912486C
:103F4000FFF7D4FD1048FFF7D7FF0F4800880E4950
:103F5000888008464088C88011E020200849086011
:103F6000012008600220091D0860074800F00EF8D3
:103F70004FF0FF300449088048808880C88010BD19
:103F8000100C014014000020DC00002010B5044695
:103F9000B4F90400401C20B9B4F90400401C00B975
:103FA00010BDE28891B2A28890B2FFF745FC00BF35
:103FB000F6E700002DE9F04FB9B004464FF00009D4
:103FC000CA4600201E901D900026FE48FEF7FCFD0C
:103FD00000211F20FEF7EEFD2046FEF7AFFBFA485A
:103FE00000888010ADF85400F84800888010ADF8C3
:103FF0005600BDF85400ADF85C00F448008800EBB2
:104000004000801001B215A84181EF48008800EB04
:104010004000801000B2ADF8640015A841894182CB
:10402000BDF86400ADF86C00BDF8561015A84183CA
:10403000002558E0E5480388E34802880021084647
:10404000FDF7EEFFE2A6FEF7A9FD8088DE490988AC
:1040500091FBF0F83046FCF7ABF8A8EB00004708FE
:1040600020233A46E0A11FA8009600F05FFAD74946
:10407000098848101FA9FEF781F8FEF78FFD808898
:10408000D149098891FBF0F0471E681C009007EBAE
:10409000D77042102023D6A11FA800F047FAFEF7E0
:1040A0007DFDC088C9490988C0EB610087B21FA99E
:1040B0003846FEF763F8D048FFF708FD15AA02EB73
:1040C000C502528891B215AA32F8352090B2FEF797
:1040D0007FF900BF0DA901EBC500FFF7CDFD00285A
:1040E000F8D0681CC5B2042DA4DB06AA0DA915A83A
:1040F000FFF7FDFB00210C98FCF73CFB00D143E1EE
:10410000BDF94E00FCF7ABFA03900799FCF7AFF846
:104110008346BDF94C00FCF7A2FA03900699FCF720
:10412000A6F859460490FCF74AF880460899FCF72F
:1041300046F805900C99FCF7CCF80746FCF7BEFA58
:104140001FFA80F9BDF94E00FCF789FA03900A992D
:10415000FCF78DF80590BDF94C00FCF780FA039050
:104160000999FCF784F804900599FCF728F8834630
:104170000B99FCF724F880460C99FCF7AAF807463F
:10418000FCF79CFA1FFA80FABDF96C00484504DA86
:10419000BDF96C00A9EB000003E0BDF96C00A0EBD9
:1041A000090080B21E90BDF96E00504504DABDF9D9
:1041B0006E00AAEB000003E0BDF96E00A0EB0A0060
:1041C00080B21D901E980F2802DC1D980F2800DD7C
:1041D000DAE00C98FCF79FFACDE902010698FCF7AB
:1041E0009AFA07460022854BFCF758F9CDE9000101
:1041F000DDE90223FCF7C4F9CDE90401FCF79EFADE
:1042000004EB44017E4A42F831000C98FCF783FA33
:10421000CDE902010798FCF77EFA07460022774BAA
:10422000FCF73CF9CDE90001DDE90223FCF7A8F930
:10423000CDE90401FCF782FA04EB4401704A02EB79
:10424000C10148600C98FCF766FACDE902010898B4
:10425000FCF761FA07460022684BFCF71FF9CDE92D
:104260000001DDE90223FCF78BF9CDE90401FCF73D
:1042700065FA04EB4401624A02EBC10188600C98C4
:10428000FCF749FACDE904010998FCF744FA002249
:104290005A4BCDE90001FCF701F9CDE90201DDE956
:1042A0000423FCF76DF90746FCF748FA04EB4401D8
:1042B000534A02EBC101C8600C98FCF72CFACDE917
:1042C00004010A98FCF727FA00224C4BCDE90001C3
:1042D000FCF7E4F8CDE90201DDE90423FCF750F92D
:1042E0000746FCF72BFA04EB4401454A02EBC101F7
:1042F00008610C98FCF70FFACDE902010B98FCF766
:104300000AFA00223D4BCDE90001FCF7C7F8074649
:10431000DDE90223FCF734F9CDE90401FCF70EFADC
:1043200004EB4401364A02EBC10148612748038887
:104330002548028800210846FDF772FE4FF4FC6014
:10434000FEF748FC2FA6FEF729FC80881E49098845
:1043500091FBF0F83046FBF72BFFA8EB0000470875
:1043600020233A4620A11FA8009600F0DFF8174945
:10437000098848101FA9FDF701FF2748FFF7A6FB92
:10438000012039B0BDE8F08F104803880E4802883C
:1043900000210846FDF744FE4FF47840FEF71AFC72
:1043A0001EA6FEF7FBFB80880749098891FBF0F801
:1043B0003046FBF7FDFEA8EB0000470820233A46F5
:1043C00009A133E0E40000200400002006000020E2
:1043D000546F7563682043616C6962726174652013
:1043E0002E2E2E2E2E2E0000252A6325730000006F
:1043F000252A632564000000E09304000000F03FDC
:104400001400002043616C69627261746520537509
:10441000636365640000000040420F0043616C6903
:104420006272617465206661696C00001FA8009665
:1044300000F07CF81649098848101FA9FDF79EFE78
:1044400014A6FEF7ABFB80881549098891FBF0F8AC
:104450003046FBF7ADFEA8EB0000470820233A46A4
:10446000AFF27C011FA8009600F060F8FEF796FB03
:10447000C0880749098800EB610087B21FA9384648
:10448000FDF77CFE0748FFF721FB002079E70000DD
:104490000600002074727920616761696E00000077
:1044A0000400002040420F0070B505460421164864
:1044B000FDF71DFD01211448FDF719FD00241FE043
:1044C000C4F1070045FA00F000F0010020B104211A
:1044D0000D48FDF70EFD03E004210B48FDF707FD35
:1044E0000520FFF7F3FA01210748FDF702FD05203B
:1044F000FFF7ECFA01210448FDF7F9FC601CC4B297
:10450000082CDDDB70BD0000001801400FB4054B26
:1045100010B503A9044A029800F02CF810BC5DF80D
:1045200014FB00005D490008240100200FB4084B73
:1045300010B504A902AA039800F01CF8044602A9C9
:10454000002000F0B8F9204610BC5DF814FB000014
:10455000B748000802E008C8121F08C1002AFAD1B3
:1045600070477047002001E001C1121F002AFBD1F3
:10457000704700002DE9FF4F8BB0884605460026A6
:1045800006E025280BD0DDE90D1290476D1C761C46
:1045900028780028F5D10FB03046BDE8F08F002410
:1045A000A146A2460122AE4900E0044315F8013FAE
:1045B000203B02FA03F00842F7D128782A2810D0CD
:1045C0006FF02F022878A0F13001092915D809EBE6
:1045D000890102EB410144F0020400EB01096D1C6A
:1045E000F0E758F8041B5FEA010903D544F40054CE
:1045F000C9F1000944F002046D1C28782E2817D157
:1046000015F8010F44F004042A280ED06FF02F0291
:104610002878A0F1300109290AD80AEB8A0102EBB7
:10462000410100EB010A6D1CF2E758F804AB6D1C68
:1046300028786C280FD006DC4C2817D068280DD0BD
:104640006A2814D104E0742810D07A280FD10DE024
:1046500044F400140AE044F4801401E044F44014EB
:104660006978814202D104F580146D1C6D1C287894
:10467000692865D006DC00288DD0632827D06428FF
:1046800006D15DE06E2808D073282AD0752877D02F
:10469000DDE90D129047761CE0E0C4F302500228D9
:1046A00009D003280DD0D8F8001004280DD00E60D2
:1046B00008F10408D2E0D8F80010F217C1E900624E
:1046C000F6E7D8F800100E80F2E70E70F0E718F861
:1046D000041B8DF8001000208DF80100EB4601202E
:1046E00003E058F804BB4FF0FF3061074FF00007BC
:1046F00001D40AE07F1C57450DDA8742FADB1BF82C
:1047000007100029F6D106E07F1C8742FCDB1BF86E
:1047100007100029F8D1DDE90D23A9EB0700814638
:10472000214600F0B1F83044C61904E0DDE90D126D
:104730001BF8010B90477F1EF8D22146484688E0BF
:1047400058F8040BC4F302514FF00A0B032900D1AF
:1047500000B2042900D140B2002802DA40422D21E3
:1047600002E0210505D52B218DF82410012104E05C
:1047700006E0E10710D02021F6E708AF089113E02A
:1047800058F8040BC4F302514FF00A0B032900D16F
:1047900080B2042900D1C0B20021EEE75946FBF7F0
:1047A000F3FF303107F8011D0028F7D1ADEB07000A
:1047B00000F1200B600702D524F4803401E04FF0B3
:1047C000010ADA4502DDAAEB0B0000E00020824678
:1047D00000EB0B0108980144A9EB01000A90E003EB
:1047E00006D4DDE90D2321460A9800F04DF8064471
:1047F0004FF0000908E009A911F80900DDE90D12E0
:10480000904709F10109761C08998945F3DBE0031B
:104810000CD5DDE90D2321460A9800F035F8064451
:1048200004E0DDE90D1230209047761CBAF100015A
:10483000AAF1010AF5DC05E0DDE90D1217F8010B1C
:104840009047761CBBF10001ABF1010BF4DC0A9838
:104850002146DDE90D2300F005F806446D1C97E6BE
:10486000092801002DE9F041044600251E4617469F
:10487000880404D405E039462020B0476D1C641E2E
:10488000F9D52846BDE8F0812DE9F0410446002520
:104890001E469046C80301D5302700E02027880433
:1048A00004D505E041463846B0476D1C641EF9D575
:1048B0002846BDE8F0810A68531C0B6010707047F1
:1048C00038B50C2000F014F9044621480088FBF7A5
:1048D00055FCFBF749FC272190FBF1F201FB12008C
:1048E0002060FBF741FC272190FBF1F201FB120055
:1048F0006060184805680DE020682968884208D182
:1049000060686968884204D1204600F039F8FFF7F2
:10491000D7FFAD68A8680028EED14FF6FF714FF4BD
:104920007840FEF747F901200090626802EB4202EE
:104930004FF6FF7303EA4201226802EB420203EAE8
:10494000420006231A46FDF7A9FD0348046038BD5E
:104950001C010020100100201401002070B5044645
:104960000D46E1B20548FEF7BCFF00BF80210348B9
:10497000FEF7AAFF0028F9D0204670BD003801409C
:1049800010B5002821D0114B0022001F196803E048
:10499000814203D80A4649680029F9D152B1136807
:1049A000841A9C4204D1006818441060104602E04A
:1049B000506000E0186039B102680B1A934203D1CD
:1049C0000B681A4402604968416010BD280100204C
:1049D000164909680968491C71B114490968496890
:1049E000491C49B1114909680968282904D00F49AF
:1049F00009684968282902D101210D4A11700B4923
:104A0000096888680FE0094A0168126812689142D3
:104A100008D10649096849684268914202D10121DA
:104A2000034A117080680028EDD170471001002002
:104A30001A010020FDF7DEFEFFF7CEF80021062068
:104A4000FCF71EFEFCF70EF9FEF7CAF8FEF772F847
:104A50004FF6FF714FF47840FEF7ACF81748FEF7B9
:104A6000B3F817A278210C20FDF7BCFB1648FEF71F
:104A7000ABF816A29D214020FDF7B4FB1CE00121FC
:104A80001848FEF777F8012807D117480078FEF795
:104A90001DF901E0FEF7B2F9FCE74FF400511348AD
:104AA000FEF768F8012807D10F480078FEF760F993
:104AB00001E000F053F8FCE7E1E70000F40000201B
:104AC00047616D6500000000E40000206B3120624A
:104AD0007265616B6F7574206B3220736E616B65EC
:104AE0000000000000080140080000200010014004
:104AF000F0B50B30154D20F007010024144A0FE0EB
:104B000003688B420BD38B4205D95E1A4318476862
:104B1000C3E9006700E04368136002C004E0021DBF
:104B200010680028ECD12046002802D1286808B17E
:104B30000020F0BD064A07481060074A121A22F00A
:104B40000702C0E9002401202860D7E72C010020DB
:104B500028010020AC1A0020A82A002070B586B0D9
:104B60000C20FFF7C5FF05468148007800287DD15D
:104B7000804800780128FAD17F480078522809D16E
:104B80007E4800680068401C28607C4800684068D7
:104B9000686028E0784800784C2809D17748006898
:104BA0000068401E286075480068406868601AE028
:104BB00071480078552809D170480068006828605D
:104BC0006E4800684068401E68600CE06A480078E3
:104BD000442808D169480068006828606748006870
:104BE0004068401C68604FF6FF714FF4FC60FDF7B1
:104BF000E1FF634928680968096888423FD1604934
:104C0000686809684968884239D15C480068A860CA
:104C10005A480560046812E001200090626802EBC7
:104C200042024FF6FF7303EA4201226802EB42029E
:104C300003EA420006231A46FDF730FCA468A06888
:104C40000028E9D14F480078401C4E4908700846BA
:104C500002784DA101A8FFF769FC4E48FDF7B4FFAB
:104C60004FF6FF710020FDF7A5FF00E041E001AA2B
:104C7000FD21A220FDF7B6FAFFF722FE39E03F48FA
:104C80000068A8603D480560046812E001200090BB
:104C9000626802EB42024FF6FF7303EA42012268A8
:104CA00002EB420203EA420006231A46FDF7F6FB36
:104CB000A468A06880680028E8D14FF6FF71084614
:104CC000FDF778FF01200090626802EB42024FF688
:104CD000FF7303EA4201226802EB420203EA420048
:104CE00006231A46FDF7DAFBA068FFF749FE00200D
:104CF000A060FFF76DFE1E480078012833D14FF603
:104D0000FF714FF47840FDF755FF2348FDF75CFF36
:104D100022A278210C20FDF765FA1E48FDF754FF0A
:104D200021A29D214020FDF75DFA002201212248A9
:104D3000FEF757FC00BFFFF787F80128FBD10F48AB
:104D40000668344604E0B4683046FFF719FE26468C
:104D5000002CF8D12046FFF713FE0620FEF708F8D6
:104D60000020034908701548FCF7EEFD06B070BD41
:104D70001A0100201B010020180100201001002052
:104D8000140100201901002053636F72653A2564F5
:104D900000000000E4000020F400002047616D6581
:104DA000206F766572000000B5E3BBF7C8CED2E293
:104DB000B4A6BFAACABC000000100040FFFF0F004D
:104DC00000000000000000000000000000000000E3
:104DD000000000181818181818080008180000001B
:104DE0000000003424242400000000000000000023
:104DF0000000000016247F2424247E2424000000C8
:104E0000000000083E6848681C1612127C10100052
:104E100000000061D296740810162949C6000000EF
:104E2000000000003C646438724ACE467F000000F7
:104E30000000001818181800000000000000000012
:104E400000000004081810303030301010180C0426
:104E5000000000201008080C0404040C081810209E
:104E6000000000080A341C6A08000000000000006E
:104E70000000000000001818187F18181800000023
:104E800000000000000000000000001818083000BA
:104E90000000000000000000003C000000000000D6
:104EA00000000000000000000000001818000000D2
:104EB0000000000206040C0808101020204000002A
:104EC000000000003C6642475B7342663C00000005
:104ED0000000000018784808080808087E00000054
:104EE000000000003C460606040810207E0000007A
:104EF000000000007C0606043C0202067C00000064
:104F0000000000000C1C14246444FF040400000092
:104F1000000000007E6060607E0202067C000000EF
:104F2000000000001E306048764242623C000000F3
:104F3000000000007E0206040C081810300000007B
:104F4000000000003C6242361C6642423C00000009
:104F5000000000003C664242661A0204780000002D
:104F600000000000000018180000001818000000E1
:104F70000000000000001818000000181808300099
:104F800000000000000004183060100C0600000053
:104F900000000000000000007E007E000000000015
:104FA000000000000000301804060C102000000073
:104FB000000000301C06060618100010100000004B
:104FC0000000001C224141DDB5A5A5AF94C0403CC6
:104FD00000000000181C342426627E43C10000003B
:104FE000000000007C4642467C4242427C000000B9
:104FF000000000001E204040404040603E00000095
:10500000000000007C4642434343424678000000D3
:10501000000000007E6060607E6060607E000000D6
:10502000000000007E6060607E60606060000000E4
:10503000000000001E604040CE4242623E00000080
:1050400000000000424242427E42424242000000D2
:10505000000000007E181818181818187E000000AC
:10506000000000007C0404040404044478000000F0
:10507000000000004244485070584C444200000078
:105080000000000020202020202020203E000000E2
:10509000000000006266675F5B5BC1C1C100000089
:1050A00000000000626272525A4A4E4646000000FA
:1050B000000000003C6243C3C3C343623C000000E5
:1050C000000000007C46424246784040400000001C
:1050D000000000003C6243C3C3C343623C180F009E
:1050E000000000007C6662667C6C64666200000002
:1050F000000000003E6040601C0602027C000000D0
:10510000000000007F181818181818181800000060
:105110000000000042424242424242623C00000023
:1051200000000000C14342622624341C1800000025
:1051300000000000C1C141495B5B7666660000006B
:105140000000000043663418181C2466C3000000E9
:1051500000000000C14266341C1818181800000036
:10516000000000007E02040C181020607E00000089
:105170000000001C10101010101010101010101C47
:10518000000000402020101008080C040602000057
:105190000000003C0C0C0C0C0C0C0C0C0C0C0C3C13
:1051A00000000000181C2462000000000000000045
:1051B000000000000000000000000000000000FFF0
:1051C00000000020100000000000000000000000AF
:1051D0000000000000003C06023E42467A0000004B
:1051E0000000004040405C62424242427C000000BD
:1051F0000000000000001E20604060203E00000013
:105200000000000202023E62424242663A00000092
:105210000000000000003C62427E40603E00000052
:105220000000000F1810107E101010101000000069
:105230000000000000003F66426658403E43423C8A
:105240000000004040405C62424242424200000096
:105250000000001818007808080808087E00000000
:10526000000000040C007C040404040404040C7812
:10527000000000606060626C78706864620000002A
:105280000000007808080808080808087E000000E8
:10529000000000000000764B4B4B4B4B4B000000D6
:1052A0000000000000005C624242424242000000F6
:1052B0000000000000003C62424342623C000000EB
:1052C0000000000000005C62424242427C404040DC
:1052D0000000000000003E62424242663A020202C2
:1052E0000000000000006E726360606060000000FB
:1052F0000000000000003E20203C06027C00000070
:10530000000000001010FE10101010101E00000011
:105310000000000000004242424242663A000000A3
:10532000000000000000434266243418180000000A
:10533000000000000000C1C15B5A5E66660000000C
:1053400000000000000062261C181C2662000000FD
:1053500000000000000043426624341C181830E0AE
:105360000000000000007E060C1810207E000000E7
:105370000000000E18101010307010101010180ED1
:1053800000000808080808080808080808080808AD
:1053900000000030180808080C0E0808080818302B
:1053A0000000000000000000714B0600000000003B
:1053B00000000000000000000000000000000000ED
:1053C00000000000000000000000000000000000DD
:1053D00000000000000000000000000000000000CD
:1053E0000000000000000000000003800180018038
:1053F0000180018001800180018001800180000026
:10540000000003C003C00000000000000000000016
:10541000000000000000000000000E700E700E7012
:105420000C30000000000000000000000000000040
:10543000000000000000000000000000000000006C
:105440000000000000000000000000000618063800
:1054500006307FFE0C300C300C300C307FFE0C60C0
:105460001C601860186000000000000000000000D0
:10547000000000000000000000C000C00FF83CC8A1
:1054800031C031803D801F8003F001F8031C030C04
:10549000031C3FF83FE0070006000000000000008A
:1054A00000000000000000001C007E0E630C63186A
:1054B00063307E6000C001800300077C0EE61CC6DE
:1054C00018C630C6607C000000000000000000002C
:1054D000000000000000000000000FE01CF0387029
:1054E00038701C601FC00F003F8C71CC60EC607C7A
:1054F00070383CFC1FCE00000000000000000000DF
:105500000000000000000000000003C001800180D6
:10551000018000000000000000000000000000000A
:10552000000000000000000000000000000000007B
:105530000000000000000000003000E001C0018019
:1055400003000700060006000E000E000E000E000D
:10555000060007000300038001C000E000300000E7
:1055600000000000000000000C0006000380018025
:1055700001C000E00060006000700070007000601A
:10558000006000E000C00180038006000C00000005
:1055900000000000000000000000018011881DB81C
:1055A00003C007E03DBC018801800000000000004E
:1055B00000000000000000000000000000000000EB
:1055C00000000000000000000000000000000000DB
:1055D000018001800180018001807FFE01800180C7
:1055E00001800180000000000000000000000000B9
:1055F00000000000000000000000000000000000AB
:10560000000000000000000000000000000000009A
:1056100003C003C001C001C003801F0000000000E0
:10562000000000000000000000000000000000007A
:10563000000000000000000000000FF0000000006B
:10564000000000000000000000000000000000005A
:10565000000000000000000000000000000000004A
:10566000000000000000000000000000000000003A
:1056700003C003C003C000000000000000000000E1
:10568000000000000000000000000018003800309A
:10569000006000E000C001C00180030003000600BC
:1056A0000E000C001C00180030000000000000007C
:1056B0000000000000000000000001800FF01C3816
:1056C000381C301C707E70EE738E7E0E7C0C300C9D
:1056D000381C1E780FE000000000000000000000F1
:1056E00000000000000000000000000007C01FC014
:1056F00039C001C001C001C001C001C001C001C06A
:1057000001C03FFC3FFC0000000000000000000062
:105710000000000000000000000003801FF01838A7
:105720000038001800380038007001E003800700DE
:105730001C003FFC3FFC00000000000000000000D7
:105740000000000000000000000007801FF000388B
:1057500000380038003007E007F00038001C001C5B
:10576000001820F83FE000000000000000000000EA
:1057700000000000000000000000000000F001B088
:10578000033007300E301C30383070307FFE7FFE23
:105790000030003000300000000000000000000079
:1057A0000000000000000000000000001FF81800CA
:1057B0001800180018001FE000F8001C001C001C56
:1057C000003800F01FC000000000000000000000D2
:1057D00000000000000000000000000003F80F00BF
:1057E0001C001800300037F83C3C300C300C380CF2
:1057F000381C1E380FF00000000000000000000000
:105800000000000000000000000000003FFC001C41
:10581000001800380070006000E001C001800380C3
:10582000070006000E00000000000000000000005D
:105830000000000000000000000003C01FF8381C3A
:10584000381C381C1C380FF007F01C78381C300C42
:10585000381C3C380FF00000000000000000000081
:105860000000000000000000000003801FF0383836
:10587000301C701C700C380C1FFC0FCC001C001866
:1058800000701FE01F80000000000000000000000A
:105890000000000000000000000000000000000008
:1058A000000003C003C001800000000000000000F1
:1058B00003C003C003C0000000000000000000009F
:1058C00000000000000000000000000000000000D8
:1058D000000003C003C001800000000000000000C1
:1058E00003C003C001C001C003800F00000000001E
:1058F00000000000000000000000000000000000A8
:10590000003800F001C007001E0038000E000780BC
:1059100001C0007000300000000000000000000026
:105920000000000000000000000000000000000077
:105930000000000000003FFC000000003FFC3FFCB6
:105940000000000000000000000000000000000057
:105950000000000000000000000000000000000047
:105960001C000F00038001E00078001C007001E0C3
:1059700003800E000C00000000000000000000008A
:10598000000000000000000000000FC000F0003820
:1059900000380038003803F00380030003000000E3
:1059A00000000780078000000000000000000000E9
:1059B000000000000000000000E007F80C0C1806D2
:1059C0003006700363F36633C673CC63CC62CC6677
:1059D000CCE6C7FCE0006000700038101FF000004B
:1059E00000000000000000000000000003C007E00D
:1059F00006E00E700E700C301C3818183FFC3FFC8F
:105A0000700E600EE00700000000000000000000C3
:105A10000000000000000000000000003FF03838E7
:105A2000381C381C38383FF03FF8381C380C380C1C
:105A3000381C3FF83FE000000000000000000000BC
:105A40000000000000000000000000E007FC1E0451
:105A500038003800300070007000700030003800EE
:105A60003C001F9C07FC000000000000000000003C
:105A70000000000000000000000000003FF030784F
:105A8000301C300C300E300E300E300E300E301C0C
:105A900030383FF03FC00000000000000000000070
:105AA0000000000000000000000000001FF81800C7
:105AB0001800180018001FF81FF818001800180028
:105AC00018001FF81FF80000000000000000000090
:105AD0000000000000000000000000001FF8180097
