:020000040800F2
:100000009821002045010008B91D00080D130008C3
:10001000B51D0008C50A00088F290008000000006F
:10002000000000000000000000000000D5230008D0
:10003000650D000800000000C91E0008BD2500086D
:100040005F0100085F0100085F0100085F01000810
:100050005F0100085F0100085F0100085F01000800
:100060005F0100085F0100085F0100085F010008F0
:100070005F0100085F0100085F0100085F010008E0
:100080005F0100085F0100085F0100085F010008D0
:100090005F0100085F0100085F0100085F010008C0
:1000A0005F0100085F0100085F0100085F010008B0
:1000B0005F0100085F0100085F0100085F010008A0
:1000C0005F0100085F0100085F0100085F01000890
:1000D0005F0100085F0100085F0100085F01000880
:1000E0005F0100085F0100085F0100085F01000870
:1000F0005F0100085F0100085F0100085F01000860
:100100005F0100085F0100085F0100085F0100084F
:100110005F0100085F010008212600085F01000858
:100120005F0100085F0100085F0100085F0100082F
:10013000DFF80CD000F006FB00480047D93A000871
:10014000982100200648804706480047FEE7FEE762
:10015000FEE7FEE7FEE7FEE7FEE7FEE7FEE7FEE777
:10016000C1250008310100080649074A08685043C4
:1001700043F23902104408604008704701490860A2
:1001800070470000100100206D4EC641D2B201E060
:1001900000F8012B491EFBD270470022F6E710B58C
:1001A00013460A4604461946FFF7F0FF204610BDE5
:1001B000421C10F8011B0029FBD1801A7047F0B4D3
:1001C00080EA0102D40F4200B2EB410F02D2024694
:1001D000084611464A0042D0C30DDDB2C1F3C752F2
:1001E000AD1A202D35DAC1F3160141F4000204B135
:1001F0005242C5F1200602FA06F12A411044B3EB3F
:10020000D05F23D0C4B1012DA0EBC35009DCF0BCFA
:100210004FF0004202EAC352DBB200F5000000F0EA
:1002200006BA400000F1807000EBC350A0F180706E
:1002300040EAD170490009E0490841EAC071A0EBE9
:10024000C35000F50000400800EBC350F0BC00F0C4
:10025000E5B96142012202EB4101001BF6E7F0BC67
:10026000704781F00041AAE780F00040A7E780EAEC
:10027000010210B502F00043400022D04A001FD016
:10028000010E01EB1261C0F35600C2F3560240F4B6
:10029000000042F40002A0FB022000047F39140495
:1002A00000D0401C50EA124001D44000491EC2B2A6
:1002B0000C0604EBD010401C4008802A02D003E05A
:1002C000002010BD20F00100002900DA00201843B2
:1002D00010BD30B480EA010202F0004530F0004267
:1002E00021F0004013D090B1C30DD40DC2F316011C
:1002F000C0F31600E41A41F4000140F400027D341A
:10030000914201D3641C00E04900002C02DA30BCA9
:10031000002070474FF400000023914201D3891A56
:10032000034340084FEA4101F7D151B1914202D154
:100330004FF0004105E002D24FF0010101E06FF003
:10034000010103EBC450284430BC00F067B92DE92B
:10035000FE4F81EA030404F0004421F000410094C0
:100360004FF0000B23F0004350EA01045ED052EA44
:1003700003045BD0C3F30A54C1F30A552C44A4F21E
:10038000F3340194A0FB0254C1F3130141F4801132
:10039000C3F3130343F4801301FB024400FB034E39
:1003A000840A970A44EA815447EA8357A4FB076802
:1003B00002958D0A05FB07854FEA932C04FB0C542C
:1003C0002705029D4FEA065847EA1637B5EB0805A0
:1003D0006EEB070C870E920E47EA811742EA8312F2
:1003E000A7FB0201B6EB0B0164EB00042B0D43EA03
:1003F0000C335E1844EB1C50DA465146E7FB020111
:10040000C5F313044FEA0B3343EA14534FEA0432A3
:10041000019C43EA0603A4F10C040294009CCDE97C
:1004200000B400F041F903B0BDE8F08F00200146B0
:10043000F9E72DE9F04D81EA030404F0004B21F0C7
:10044000004514464FF0000A23F0004150EA05022F
:1004500020D054EA01021DD0C5F30A570246C5F365
:100460001303C1F31300C1F30A5640F4801543F49B
:100470008013A7EB0608101BD64608F2FD3873EB75
:10048000050002D308F1010801E092185B41B8F1C0
:10049000000F03DA00200146BDE8F08D00204FF484
:1004A0008011064684460EE0171B73EB050705D343
:1004B000121B63EB050306434CEA010C49084FEAA3
:1004C000300092185B4150EA0107EDD152EA030077
:1004D00012D082EA040083EA0501084305D0101B0C
:1004E000AB4106D20122002306E000224FF0004378
:1004F00002E06FF0010253101AEB06004CEB0851BA
:1005000010EB0A0041EB0B01BDE8F04D00F0BDB867
:10051000C10F80EAE0700844CA079623002100F06A
:1005200086B800F0004220F00040C10DC0F3160074
:1005300040F400007F2901DA00207047962903DC8F
:10054000C1F19601C84001E096398840002AF4D0F4
:100550004042704720F00040C10DC0F3160040F447
:1005600000007F2901DA00207047962903DCC1F1E1
:100570009601C840704796398840704700F00042A5
:1005800030F000400AD0C10D01F56071C0F31600D3
:1005900042EA0151C208400711437047002001465A
:1005A000704701F0004330B421F0004150EA0102ED
:1005B00006D00A0DA2F56072C1F31301002A02DC15
:1005C00030BC00207047440F44EAC104C100E01869
:1005D00030BC00EBC25000F021B80000002801DB65
:1005E000C0F10040002901DBC1F1004181427047A8
:1005F00030B50B46014600202022012409E021FAF3
:1006000002F59D4205D303FA02F5491B04FA02F5EF
:100610002844151EA2F10102F1DC30BD0029A8BF5B
:100620007047401C490008BF20F00100704710B41B
:10063000B0FA80FC00FA0CF050EA010404BF10BCD0
:10064000704749B1CCF1200421FA04F411FA0CF1FD
:1006500018BF012121430843A3EB0C01CB1D4FEA36
:1006600000614FEA102042BF002010BC704700EB31
:10067000C35010440029A4BF10BC7047401C49005F
:1006800008BF20F0010010BC704710B5141E73F1B4
:10069000000408DA401C41F1000192185B411A4342
:1006A00001D120F0010010BD2DE9F04D92469B468E
:1006B00011B1B1FA81F202E0B0FA80F22032904634
:1006C00000F052F804460F4640EA0A0041EA0B01E6
:1006D00053465A46084313D0114653EA010019D035
:1006E000C8F14002504600F04EF805460E4650460E
:1006F0005946424600F038F8084305D0012004E08E
:1007000020463946BDE8F08D0020054346EAE076F4
:100710002C4337430A986305E40AA0EB0800002243
:10072000FD0A44EA47540A3002D500200146E9E7B1
:10073000010510196941DDE9084500196941BDE865
:10074000F04DA2E7064C074D06E0E06840F00103DB
:1007500094E8070098471034AC42F6D3FFF7ECFC5E
:100760003479000854790008202A04DB203A00FA82
:1007700002F1002070479140C2F1200320FA03F3F8
:10078000194390407047202A04DB203A21FA02F0F6
:100790000021704721FA02F3D040C2F120029140BB
:1007A00008431946704721B1826842F00102826015
:1007B00003E0826822F001028260704721B1826802
:1007C00042F48072826003E0826822F48072826068
:1007D0007047014600208A6802F004020AB1012035
:1007E00000E000207047014600208A6802F00802FD
:1007F0000AB1012000E000207047000030B5024639
:100800000020002350680F4C20400D790C6844EA0A
:1008100005242043506090680B4C2040D1E90254DD
:100820002C434D7944EA450420439060D06A20F47B
:1008300070000C7C641EE4B2234340EA0350D06293
:1008400030BD0000FFFEF0FFFDF7F1FFF0B50446FC
:100850000D4600200021092D11DDE068A5F10A06F2
:1008600006EB4607072606FA07F18843A5F10A06B4
:1008700006EB460603FA06F10843E0600CE0206947
:1008800005EB4507072606FA07F1884305EB450601
:1008900003FA06F108432061072A0FDA606B561E3F
:1008A00006EB86071F2606FA07F18843561E06EB5D
:1008B000860605FA06F10843606322E00D2A0FDA86
:1008C000206BD61F06EB86071F2606FA07F1884322
:1008D000D61F06EB860605FA06F10843206310E0F2
:1008E000E06AA2F10D0606EB86071F2606FA07F15D
:1008F0008843A2F10D0606EB860605FA06F10843C9
:10090000E062F0BD816841F008018160704721B16B
:10091000826842F4A002826003E0826822F4A002AE
:1009200082607047816841F0040181607047000077
:1009300008B50121102001F0F5FA0820ADF80000FB
:1009400000208DF803006946014800F01CFC08BD3A
:100950000010014010B5FFF7EBFF00F001F810BDEB
:1009600000B591B00121084601F0BCFA012148020E
:1009700001F0D8FA334800F031F933480690334893
:100980000790002008900120099000200A900B9009
:100990004FF480700C9080000D9020200E9000028B
:1009A0000F900020109006A9264800F0BDF9012103
:1009B000244800F007F9002001908DF8080001207C
:1009C0008DF809004FF4602003900020049001206E
:1009D0008DF8140001A91C484C38FFF70FFF4FF4A5
:1009E000404001F073FA052301220D2116484C38CE
:1009F000FFF72CFF012114484C38FFF7DFFE0121DF
:100A000011484C38FFF7CFFE0F484C38FFF77AFFFC
:100A100000BF0D484C38FFF7E6FE0028F9D10A4820
:100A20004C38FFF77FFF00BF07484C38FFF7D1FE77
:100A30000028F9D1012104484C38FFF768FF11B0B4
:100A400000BD0000080002404C2401400C010020C1
:100A500010B500F023F800F001F810BD0EB501212B
:100A6000102001F04FFA40F69F70ADF804004720C7
:100A7000ADF800006946084801F00EFE0121064865
:100A800001F0DEFD01221146034801F0FCFD0121C9
:100A9000014801F0DBFD0EBD0010004008B54FF429
:100AA000E06001F0C3F936208DF8000000208DF8D9
:100AB000010001208DF802008DF80300684601F066
:100AC0007DF908BD00BFFEE738B505460C4600209D
:100AD000009001F0FDFA01229102684601F03EFA11
:100AE0009DF80000A52801D0012000E00020012C85
:100AF00001D1012100E00021084308B39DF8000066
:100B0000A52806D1012C04D1C022E102104801F031
:100B100025FA00BF284602F09FFA0028FAD00020EC
:100B200001F084FBA520009001229102684601F0AB
:100B30003DFAC0224FF40061054801F037FA05E0A4
:100B4000C0224FF40061024801F008FA38BD0000ED
:100B5000140000200449097809B9012100E00021AE
:100B6000014A1170704700000B0100200146084641
:100B70008268032A06D1124A1278442A02D05522EA
:100B80000F4B1A708268012A06D10D4A1278552A35
:100B900002D044220A4B1A70826832B9084A12788D
:100BA000522A02D04C22064B1A708268022A06D1C1
:100BB000034A12784C2A02D05222014B1A70704715
:100BC0000801002021B1026842F00102026004E045
:100BD00002684FF6FE731A400260704701684FF6D4
:100BE000FE72114001600021016041608160C160BE
:100BF0004B49884208D14A490839496841F00F01F8
:100C0000474A083A51608AE045491431884208D180
:100C100043490839496841F0F001414A083A5160B6
:100C20007DE03F492831884208D13D49083949686B
:100C300041F470613A4A083A516070E038493C31F9
:100C4000884208D136490839496841F47041344A2C
:100C5000083A516063E032495031884208D1304946
:100C60000839496841F470212D4A083A516056E02C
:100C70002B496431884208D129490839496841F42F
:100C80007001274A083A516049E025497831884285
:100C900008D123490839496841F07061204A083A6F
:100CA00051603CE01F49884206D1011F096841F0AC
:100CB0000F01021F116032E01A491431884208D135
:100CC0001849091F096841F0F001164A121F116006
:100CD00025E014492831884208D11249091F0968C2
:100CE00041F470610F4A121F116018E00D493C3148
:100CF000884208D10B49091F096841F47041094A2B
:100D0000121F11600BE007495031884207D1054995
:100D1000091F096841F47021024A121F11607047CF
:100D2000080002400804024010B50022026847F69D
:100D3000F0739A430C6A8B6823430C6923434C6914
:100D400023438C692343CC6923434C6A23438C6A35
:100D500023431A430260CB6843600B6883604B688F
:100D6000C36010BD704701B502E00098401E0090BE
:100D700000980028F9D108BD2DE9F84305462C4616
:100D8000207BD0B94FF6FF714CF2186000F0CCFF19
:100D900001200090E788B4F802C0A7EB0C07BBB2B3
:100DA000A788B4F800C0A7EB0C07BAB26188604608
:100DB00000F062FC4CF2186618E04FF6FF7108462E
:100DC00000F0B2FF01200090E788B4F802C0A7EB62
:100DD0000C07BBB2A788B4F800C0A7EB0C07BAB2E7
:100DE0006188604600F048FC4FF6FF764FF6FF71D1
:100DF0004FF4047000F098FF00200090E788B4F8EA
:100E000002C0A7EB0C07BBB2A788B4F800C0A7EBE1
:100E10000C07BAB26188604600F02EFC3146002013
:100E200000F082FF3F4800F089FFA06830B1012840
:100E300020D002283AD0032870D153E03146002058
:100E400000F072FFE2886388D21AA2F1100707EB64
:100E5000D77203EB620291B2A2882388D21AA2F160
:100E6000100808EBD87203EB620290B22EA200F0D9
:100E700043FB53E03146002000F056FFE2886388D0
:100E8000D21AA2F1100707EBD77203EB620291B2FC
:100E9000A2882388D21AA2F1100808EBD87203EBBB
:100EA000620290B221A200F027FB37E03146002019
:100EB00000F03AFFE2886388D21AA2F1100707EB2C
:100EC000D77203EB620291B2A2882388D21AA2F1F0
:100ED000100808EBD87203EB620290B214A200F083
:100EE0000BFB1BE03146002000F01EFFE288638808
:100EF000D21AA2F1100707EBD77203EB620291B28C
:100F0000A2882388D21AA2F1100808EBD87203EB4A
:100F1000620290B207A200F0EFFA00BF00BFBDE886
:100F2000F8830000E4000020D7F30000CFC20000E7
:100F3000D3D20000C9CF00002DE9F84305462C4666
:100F4000207BD0B94FF6FF714CF2186000F0ECFE38
:100F500001200090E788B4F802C0A7EB0C07BBB2F1
:100F6000A788B4F800C0A7EB0C07BAB26188604646
:100F700000F082FB4CF2186618E04FF6FF7108464D
:100F800000F0D2FE01200090E788B4F802C0A7EB81
:100F90000C07BBB2A788B4F800C0A7EB0C07BAB225
:100FA0006188604600F068FB4FF6FF764FF6FF71F0
:100FB0004FF4047000F0B8FE00200090E788B4F809
:100FC00002C0A7EB0C07BBB2A788B4F800C0A7EB20
:100FD0000C07BAB26188604600F04EFB3146002033
:100FE00000F0A2FE1B4800F0A9FE1B480078B8B133
:100FF000E2886388D21AA2F1100707EBD77203EBDD
:10100000620291B2A2882388D21AA2F1200808EBCA
:10101000D87203EB620290B210A200F06DFA16E0F3
:10102000E2886388D21AA2F1100707EBD77203EBAC
:10103000620291B2A2882388D21AA2F1200808EB9A
:10104000D87203EB620290B206A200F055FABDE836
:10105000F8830000E40000200B010020D4DDCDA3C4
:1010600000000000BCCCD0F80000000051B18200AC
:10107000A2F1C042126842F001038200A2F1C04214
:10108000136009E08200A2F1C0421268034B1A40CB
:101090008300A3F1C0431A6070470000FEFF0F00F9
:1010A000D0E901121143C268114302691143426938
:1010B000114382691143C2691143026A1143426AB2
:1010C0001143826A1143C26A1143026B11430268E1
:1010D0009200A2F1C0421160816808290BD1016819
:1010E0008900A1F1C041096841F04002016889000E
:1010F000A1F1C0410A60416B0968426B526841EA44
:101100000211426B926841EA0221426B928941EAE4
:101110000241426B128A41EA0251426B127D41EA5E
:101120000261426B926911430268521C9200A2F163
:10113000C0421160C16AB1F5804F1BD1816B096853
:10114000826B526841EA0211826B926841EA022185
:10115000826B128A41EA0251826B127D41EA02617E
:10116000826B9269114302689200A2F1C042C2F8F8
:10117000041107E06FF0704201688900A1F1C041DD
:10118000C1F8042170472DE9F041024600250026F0
:10119000002000230024002791F803C00CF00F0565
:1011A00091F803C00CF0100CBCF1000F03D091F8C3
:1011B00002C04CEA050591F800C0BCF1000F31D027
:1011C000146800202BE04FF0010C0CFA00F3B1F88A
:1011D00000C00CEA03069E4220D183004FF00F0CA2
:1011E0000CFA03F7BC4305FA03FC4CEA040491F83B
:1011F00003C0BCF1280F06D14FF0010C0CFA00FC23
:10120000C2F814C00AE091F803C0BCF1480F05D140
:101210004FF0010C0CFA00FCC2F810C0401C08286A
:10122000D1D31460B1F800C0BCF1FF0F34DD5468B5
:1012300000202EE000F1080C4FF0010808FA0CF332
:10124000B1F800C00CEA03069E4221D183004FF0A2
:101250000F0C0CFA03F7BC4305FA03FC4CEA040438
:1012600091F803C0BCF1280F05D100F1080C08FA71
:101270000CF8C2F8148091F803C0BCF1480F07D1F4
:1012800000F1080C4FF0010808FA0CF8C2F81080C1
:10129000401C0828CED35460BDE8F08102460020EF
:1012A00093680B400BB1012000E0002070474161C2
:1012B00070470161704700002DE9F04180460C46FF
:1012C0001048007820B900F003FF01200D49087094
:1012D0002512E6B2A5F1A101C1EB011202EB411109
:1012E00006EB4101A1390802C11700EB5171CF1083
:1012F000054839182022404600F030FE0020BDE8A5
:10130000F0810000FC0000200030180000BFFEE764
:1013100010B504462CB14FF480510548FFF7C7FFC4
:1013200004E04FF480510248FFF7C3FF10BD0000F6
:10133000001401402DE9F04106460F4614461D46B3
:101340002B4622463946304600F056FB04FB05F09A
:101350000249098800F003FABDE8F081120000207C
:1013600001B502E00098401E009000980028F9D1D5
:1013700008BD00002DE9F04389B080468946174634
:1013800010231A464946404600F036FB2C2000F058
:10139000B5FC394601A8FFF78FFF002422E001A821
:1013A00010F814604FF6FF7000EA0626012000EBEB
:1013B000440001A9085C064300250FE04FF40040FB
:1013C0002841304020B10A48008800F09BFC03E02F
:1013D0000848008800F096FC681CC5B2102DEDDBB3
:1013E000601CC4B2102CDADB09B0BDE8F083000049
:1013F00010000020120000202DE9F05F8046894691
:101400001646A6F120001FFA80FA1E49096889884D
:101410001C4A1268D28801FB02F0C11700EB51711F
:10142000C1F3C7071748006800680AFB070B154897
:101430000068C3881348006882884946404600F027
:10144000DBFA2C2000F05AFC002416E0002510E006
:101450001BF8040080212941084020B10A48008877
:1014600000F050FC03E00948008800F04BFC681CC9
:10147000C5B2082DECDB601CC4B2BC42E6DBBDE8A3
:10148000F09F00000C00002010000020120000203F
:1014900070B504460D46002624E03046134909681D
:1014A0008988084412490988884205DD00260F48CA
:1014B0000068C088204484B220460C490968C98865
:1014C00008440C490988884201DD002600242A7856
:1014D00021463046FFF790FF6D1C04480068808865
:1014E000304486B228780028D7D170BD0C00002087
:1014F00004000020060000202DE9F04105460E46BC
:10150000144648E020787E2825DC284624490968CE
:101510008988084423490988884205DD0025204838
:101520000068C088304486B230461D490968C988C1
:1015300008441D490988884201DD002500262278DB
:1015400031462846FFF758FF154800688088284430
:1015500085B2641C1FE02846103012490988884271
:1015600003DD002506F1100086B2304610300E492A
:101570000988884201DD002500262788380200EB13
:10158000272087B23A4631462846FFF7F3FE05F199
:10159000100085B2A41C20780028B3D1BDE8F081EA
:1015A0000C000020040000200600002070B5044656
:1015B0000D4604F10A018AB2143988B22B46294635
:1015C00000F00AF805F10A0083B2143881B222460D
:1015D000204600F001F870BD2DE9FF4F83B0814631
:1015E0004FF0000AD3460598A0EB09050499069828
:1015F000461ACDF8049004980090002D01DD0127D3
:1016000005E00DB9002702E04FF0FF376D42002ED4
:1016100002DD4FF0010806E016B94FF0000802E0C5
:101620004FF0FF387642B54201DD2C4600E03446EB
:101630000020029019E0DDE9001000F043FBAA440D
:10164000B344A24505DDAAEB040A0198384480B2F0
:101650000190A34505DDABEB040B0098404480B23C
:1016600000900298401C80B20290611C029888424F
:10167000E1DD07B0BDE8F08F2DE9F04104460D46ED
:1016800016461F46DDF81880B8F1000F0CD03B4617
:1016900032462946204600F0AFF906FB07F017490D
:1016A000098800F05CF827E0A019401E82B22B46A2
:1016B00029462046FFF790FFE819401E83B2A01983
:1016C000401E82B2E819401E81B22046FFF784FF17
:1016D000E819401E83B2224629462046FFF77CFFC8
:1016E000E919491E8BB2A119491E8AB2A119491ED6
:1016F00088B22946FFF770FFBDE8F0811000002096
:1017000000B597B00121080200F0ECFB0120019028
:10171000042003908006079000200290049005901A
:1017200006900890099008200A9010200B90002045
:101730000C900E900F9010904FF48050119000205C
:1017400012901390149001A81590169008A8FFF716
:10175000A7FC01210020FFF789FC17B000BD70B580
:1017600004460D4600262C2000F0C8FA00BF03E016
:10177000284600F0C7FA761CA642F9D370BD0000D7
:1017800008B50121602000F0CDFB03208DF8020098
:1017900018208DF803004FF48040ADF80000694632
:1017A0005B48FFF7F0FC4FF40040ADF800006946DD
:1017B0005748FFF7E8FC0120ADF80000694654489F
:1017C000FFF7E1FC0220ADF8000069465048FFF742
:1017D000DAFC8020ADF8000069464E48FFF7D3FCE4
:1017E0004FF48070ADF8000069464A48FFF7CBFC23
:1017F0004FF40070ADF8000069464648FFF7C3FC9F
:101800004FF48060ADF8000069464248FFF7BBFC2A
:101810004FF40060ADF8000069463E48FFF7B3FCA6
:101820004FF48050ADF8000069463A48FFF7ABFC32
:101830004FF40050ADF8000069463648FFF7A3FCAE
:101840004FF48040ADF8000069463248FFF79BFC3A
:101850004FF40040ADF8000069462E48FFF793FCB6
:101860004FF48070ADF8000069462948FFF78BFC03
:101870004FF40070ADF8000069462548FFF783FC7F
:101880004FF48060ADF8000069462148FFF77BFC0B
:1018900003208DF8020018208DF803001020ADF809
:1018A000000069461A48FFF76EFC2020ADF80000E2
:1018B00069461748FFF767FC8020ADF800006946CD
:1018C0001348FFF760FC4FF40060ADF80000694674
:1018D0000F48FFF758FC10208DF8030003208DF807
:1018E00002000220ADF8000069460A48FFF74BFCF1
:1018F00010208DF8030003208DF802004FF4805073
:10190000ADF8000069460248FFF73DFC08BD000045
:10191000001401400018014010B50446072C00DDFA
:1019200010BD28480470204604EBD0714910A4EB88
:10193000410139B9F020244908804FF4A0702349AF
:10194000088006E04FF4A0701F490880F0201F496E
:101950000880362000F0D2F9082141EA441000F056
:10196000D1F92A2000F0CAF9002000F0CBF90020BC
:1019700000F0C8F914490988491EC1F3072000F096
:10198000C1F911490978491EC8B200F0BBF92B20F2
:1019900000F0B4F9002000F0B5F9002000F0B2F931
:1019A0000A490988491EC1F3072000F0ABF907492D
:1019B0000978491EC8B200F0A5F92C2000F09EF964
:1019C00000BFADE708000020040000200600002052
:1019D00010B5FFF7D5FEFFF793FE0120FFF798FC47
:1019E00000F052F900F038F802480078FFF794FF51
:1019F00010BD0000080000202DE9F04104460D460E
:101A000016461F462A2000F079F9201200F07AF9D4
:101A1000E0B200F077F9A119491EC1F30F2000F0E0
:101A200071F9A119491EC8B200F06CF92B2000F021
:101A300065F9281200F066F9E8B200F063F9E919D7
:101A4000491EC1F30F2000F05DF9E919491EC8B223
:101A500000F058F9BDE8F08110B5CF2000F04EF944
:101A6000002000F04FF9812000F04CF9302000F008
:101A700049F9ED2000F042F9642000F043F9032019
:101A800000F040F9122000F03DF9812000F03AF911
:101A9000E82000F033F9852000F034F9102000F040
:101AA00031F9782000F02EF9CB2000F027F9392009
:101AB00000F028F92C2000F025F9002000F022F990
:101AC000342000F01FF9022000F01CF9F72000F08C
:101AD00015F9202000F016F9EA2000F00FF9002097
:101AE00000F010F9002000F00DF9B12000F006F927
:101AF000002000F007F91B2000F004F9B62000F0E8
:101B0000FDF80A2000F0FEF8A22000F0FBF8C0204B
:101B100000F0F4F8352000F0F5F8C12000F0EEF800
:101B2000112000F0EFF8C52000F0E8F8452000F0A3
:101B3000E9F8452000F0E6F8C72000F0DFF8A22021
:101B400000F0E0F8F22000F0D9F8002000F0DAF818
:101B5000262000F0D3F8012000F0D4F8E02000F0B7
:101B6000CDF80F2000F0CEF8262000F0CBF824208E
:101B700000F0C8F80B2000F0C5F80E2000F0C2F805
:101B8000092000F0BFF8542000F0BCF8A82000F0B5
:101B9000B9F8462000F0B6F80C2000F0B3F8172092
:101BA00000F0B0F8092000F0ADF80F2000F0AAF81E
:101BB000072000F0A7F8002000F0A4F8E12000F0D2
:101BC0009DF8002000F09EF8192000F09BF81B20E3
:101BD00000F098F8042000F095F8102000F092F83A
:101BE000072000F08FF82A2000F08CF8472000F042
:101BF00089F8392000F086F8032000F083F80620E9
:101C000000F080F8062000F07DF8302000F07AF82F
:101C1000382000F077F80F2000F074F8362000F03C
:101C20006DF8C82000F06EF82A2000F067F8002058
:101C300000F068F8002000F065F8002000F062F87D
:101C4000EF2000F05FF82B2000F058F8002000F0A3
:101C500059F8002000F056F8012000F053F83F201A
:101C600000F050F83A2000F049F8552000F04AF80A
:101C7000112000F043F80348FFF772FB292000F021
:101C80003DF810BDFCBF020010B502210748FFF768
:101C90000EFB40F6FF20FFF763FB02210348FFF72E
:101CA00008FB40F6FF20FFF75BFB10BD001801406A
:101CB00070B504460D4601231A4629462046FFF713
:101CC0009BFE70BD70B505460C46094800888542EC
:101CD0000CDA08480088844208DA21462846FFF7D3
:101CE000E7FF054801880120FFF739FD70BD0000BE
:101CF0000400002006000020100000204FF0C0412A
:101D000008807047014908807047000000000260A9
:101D100001480068704700000C000020014908805D
:101D20007047000012000020024A1080024A118011
:101D300070470000100000201200002001490860D8
:101D4000704700000C000020014908807047000027
:101D50001000002008B50121082000F0E3F8202041
:101D6000ADF8000010208DF8030003208DF802006C
:101D700069460F48FFF707FA0120ADF800006946F1
:101D80000B48FFF700FA0220ADF80000694608484A
:101D9000FFF7F9F920210648FFF78BFA01210448E3
:101DA000FFF787FA02210248FFF783FA08BD000017
:101DB000000C014000BFFEE77047000070B5002135
:101DC00000230F22C47804B3154C246804F4E064A3
:101DD000C4F5E064210AC1F10403CA40447804FA5E
:101DE00003F184781440214309010E4C0678A15573
:101DF000047804F01F050124AC4005786D11AD0096
:101E000005F1E025C5F8004109E0047804F01F055C
:101E10000124AC40044D0678761145F8264070BD8B
:101E20000CED00E000E400E080E100E00249014345
:101E3000024A1160704700000000FA050CED00E056
:101E400070B50546FEF786FD2846FFF765FD0020C4
:101E5000174908704C20174908704FF6FF70FFF7BC
:101E60005DFF154803881548028800210846FFF7E2
:101E700061FA00F0BFFC00F065FB00F021FB0122DD
:101E800011460F4800F0FFFB00240CE004EB440275
:101E90000C4B03EBC20004EB440203EBC2021169DA
:101EA0008847601CC4B2052CF0DB01F05BFD70BDFF
:101EB0000901002008010020060000200400002085
:101EC0000010004020010020704700000146002063
:101ED000034A506820F440400843506070470000B7
:101EE0000010024029B1064A52690243044B5A616C
:101EF00004E0034A52698243014B5A617047000073
:101F00000010024029B1064AD2690243044BDA614B
:101F100004E0034AD2698243014BDA617047000052
:101F20000010024029B1064A92690243044B9A61AB
:101F300004E0034A92698243014B9A6170470000B2
:101F40000010024021B1028842F04002028004E009
:101F500002884FF6BF731A400280704770B505467D
:101F60000C46164601211048FFF7A1F9032000F0A6
:101F70007FF9C4F3074000F07BF9C4F3072000F0B9
:101F800077F9E0B200F074F904E0FF2000F070F996
:101F900028706D1C3000A6F101018EB2F5D101212F
:101FA0000148FFF786F970BD001001402DE9F05F90
:101FB00007460E4614464FF00008C146C2460025AB
:101FC000AB4606F0FF0ACAF10000C5B22046E11791
:101FD00004EB1161C1F30728E11704EB1161091249
:101FE000A4EB012101F0FF09BAF1000F20D1B8F1F3
:101FF000000F05D122463146384600F0C9F864E0AA
:1020000009E04FF480723146384600F0C1F806F519
:10201000807607F580775FEA0800A8F1010101F0FA
:10202000FF08EED14A463146384600F0B1F84CE0A0
:10203000B8F1000F18D1A94510DDA9EB050000F09B
:10204000FF0B2A463146384600F0A2F82E442F44B2
:102050005A463146384600F09BF836E02246314673
:10206000384600F095F830E0601B84B22046E11756
:1020700004EB1161C1F30728E11704EB11610912A8
:10208000A4EB012101F0FF092A463146384600F051
:102090007FF82E442F4409E04FF4807231463846D1
:1020A00000F076F806F5807607F580775FEA08009D
:1020B000A8F1010101F0FF08EED1B9F1000F04D041
:1020C0004A463146384600F063F8BDE8F09F00000C
:1020D00000B587B001210803FFF724FF0121D420B8
:1020E000FFF720FF0120ADF8040003208DF8060063
:1020F00010208DF8070001A92248FFF744F820209E
:10210000ADF8040018208DF8070001A91E48FFF75C
:102110003AF84020ADF8040001A91B48FFF733F856
:102120008020ADF8040001A91748FFF72CF8012121
:102130001448FFF7BEF80020ADF808004FF4827095
:10214000ADF80A000020ADF80C000220ADF80E003A
:102150000120ADF810004002ADF812000820ADF8E3
:1021600014000020ADF816000720ADF8180002A9F1
:10217000064800F0F1F801210448FFF7E3FE07B03C
:1021800000BD000000100140000801400030014087
:1021900070B505460C46164600F0C0F801211548FA
:1021A000FFF785F8022000F063F8C4F3074000F061
:1021B0005FF8C4F3072000F05BF8E0B200F058F8D5
:1021C000B6F5807F04DD4FF480760BA001F0F0F9C6
:1021D00003E0287800F04CF86D1C3000A6F10101F6
:1021E0008EB2F6D101210348FFF763F800F07CF8C6
:1021F00070BD0000001001403C3C2D464C4153484E
:102200002D4552524F522D3E3E205350495F464C71
:102210004153485F50616765577269746520746FF8
:102220006F206C61726765210A00000010B50446DA
:1022300000F074F800F058F801210C48FFF737F867
:10224000202000F015F8C4F3074000F011F8C4F3A3
:10225000072000F00DF8E0B200F00AF80121034871
:10226000FFF727F800F040F810BD00000010014013
:1022700010B504464FF48050194908600AE0184927
:102280000868411E164A116020B9002000F082F84B
:10229000C0B210BD0221134800F050F80028EED063
:1022A0002146104800F056F84FF480500C49086061
:1022B0000AE00B490868411E094A116020B9012053
:1022C00000F068F8C0B2E4E70121064800F036F8F3
:1022D0000028EED0034800F03AF8C0B2D9E7000079
:1022E000000000200030014010B5002401210A4800
:1022F000FEF7DDFF0520FFF7BBFF00BFFF20FFF764
:10230000B7FF044604F001000028F7D1012102487C
:10231000FEF7CFFF10BD00000010014010B50121F5
:102320000548FEF7C4FF0620FFF7A2FF012102487F
:10233000FEF7BFFF10BD0000001001400246002064
:1023400013890B400BB1012000E0002070470146CB
:10235000888970478181704710B50022028802F495
:1023600041520B884C8823438C882343CC882343D9
:102370000C8923434C8923438C892343CC892343F1
:102380001A430280838B4FF2FF74234083830B8AAE
:10239000038210BD10B50446214602A001F008F9E1
:1023A000002010BD3C3C2D464C4153482D45525217
:1023B0004F522D3E3E2053504920B5C8B4FDB3AC1A
:1023C000CAB1216572726F72436F6465203D20252A
:1023D000640A0000704710B500F002F810BD00005C
:1023E0000CB50020019000903348006840F4803024
:1023F0003149086000BF3048006800F400300090A8
:102400000198401C0190009818B90198B0F5A06F90
:10241000F1D12948006800F4003010B1012000908B
:1024200001E0002000900098012843D12348006873
:1024300040F01000214908600846006820F00300C1
:1024400008600846006840F0020008601A484068CA
:10245000194948600846406848600846406840F4AA
:10246000806048600846406820F47C104860084658
:10247000406840F4E81048600846006840F080700A
:10248000086000BF0C48006800F000700028F9D018
:102490000948406820F00300074948600846406842
:1024A00040F00200486000BF0348406800F00C00A4
:1024B0000828F9D10CBD00000010024000200240A5
:1024C00038B50C2001F01EFB04461E2020600A20B7
:1024D00060600020A060012512E00C2001F012FBDA
:1024E00017490860084600688460C5F11E00096845
:1024F00008600A20124909684860114804686D1C88
:10250000042DEADD18E04FF6FF714FF4FC60FFF791
:102510000BFC01200090626802EB42024FF6FF7351
:1025200003EA4201226802EB420203EA4200062368
:102530001A46FFF7A1F8A468A0680028E3D138BDC7
:102540000001002008B54FF6FF711F20FFF7ECFBDC
:10255000F0231A4619460020FFF73EF84FF6FF71A8
:102560000846FFF7E1FB012027235022F2210090CB
:10257000A020FFF781F84FF6FF710020FFF7D4FB92
:102580000B48FFF7DBFB0BA2FD21A220FEF7B4FFF7
:102590004FF6FF714FF40470FFF7C6FB00202723AE
:1025A0005022F2210090A020FFF766F808BD00003D
:1025B000E400002053636F72653A300070470000FA
:1025C00010B51348006840F0010011490860084642
:1025D0004068104908400E494860084600680E49A6
:1025E00008400B4908600846006820F48020086015
:1025F0000846406820F4FE0048604FF41F008860E1
:10260000FFF7E9FE4FF000600449086010BD0000CC
:10261000001002400000FFF8FFFFF6FE08ED00E0AA
:1026200010B50121054800F01DF828B100F0CAFCE2
:102630000121024800F007F810BD00000010004022
:10264000CA4302827047CA430282704721B102889E
:1026500042F00102028004E002884FF6FE731A4045
:102660000280704730B50246002000230024158AFE
:1026700005EA0103958905EA010413B10CB10120B3
:1026800000E0002030BD1AB183890B43838102E052
:1026900083898B4383817047002202881D4B9842B7
:1026A0000ED01D4B98420BD0B0F1804F08D01B4B81
:1026B000984205D01A4B984202D01A4B984204D146
:1026C0004FF68F731A404B881A43174B984207D026
:1026D000164B984204D04FF6FF431A40CB881A435A
:1026E00002808B8883850B8803850A4B98420BD028
:1026F000094B984208D00E4B984205D00D4B98429A
:1027000002D00D4B984201D10B7A038601238382BC
:1027100070470000002C01400034014000040040DC
:1027200000080040000C0040001000400014004071
:1027300000400140004401400048014070B505469A
:102740000E46002450E004EB4400294901EBC00090
:102750008088A8422CDB04EB440001EBC000C08859
:10276000B04225DB04EB440001EBC0004088B042DE
:102770001EDC04EB440031F83000A84218DC04EB06
:10278000440001EBC000007B60BB012004EB44016E
:10279000174A02EBC101087304EB4402144B03EB2C
:1027A000C20004EB440203EBC2021169884719E03E
:1027B00004EB44000E4901EBC000007B012811D15D
:1027C000002004EB44010A4A02EBC101087304EB48
:1027D0004402074B03EBC20004EB440203EBC202CA
:1027E00011698847601CC4B2052CACDB70BD0000C9
:1027F0002001002000203449088040F21910488050
:10280000502088808000C8800020886008732F488E
:1028100008612F4848615020088340F219112A4866
:102820004183A02181834900C183012101620021EC
:1028300080F82410254981622549C162A0202249DF
:10284000088640F2191120484186F02181864FF414
:10285000A071C18602218163002180F83C101B49D0
:1028600001641B49416450201749A1F84800F22136
:102870001548A0F84A10A021A0F84C1040F21911F8
:10288000A0F84E1003210165002180F854100F4973
:1028900081650F49C16500200B49A1F86000F22154
:1028A0000948A0F862105021A0F8641040F21911F4
:1028B000A0F866100021816680F86C100549016758
:1028C000054941677047000020010020790D00088C
:1028D0006D0B0008390F0008550B000870B5054650
:1028E0000E4600243BE004EB44001F4901EBC0000E
:1028F0008088A84231DD04EB440031F83000A84262
:102900002BDA04EB440001EBC000C088B04224DDA8
:1029100004EB440001EBC0004088B0421DDA002007
:1029200004EB4401104A02EBC101087304EB4402BA
:102930000D4B03EBC20004EB440203EBC2025169EE
:10294000884704EB4402084B03EBC20004EB44024B
:1029500003EBC2021169884703E0601CC4B2052C76
:10296000C1DB00BF70BD0000200100200246002036
:10297000B1F5007F00D100BF13880B400BB10120DF
:1029800000E000207047C1F308028280704700BF5A
:10299000FEE72DE9F04105460C4616460127B4F93D
:1029A0000010B4F91020891AB4F90A30B4F91220D1
:1029B0009A1A5143B4F90820B4F91030D31AB4F973
:1029C00002C0B4F91220ACEB020203FB1210FDF7B7
:1029D0009FFDB0610021B069FDF700FE01D1002725
:1029E000C3E0B5F90010B5F91020891AB4F90A301E
:1029F000B4F912209A1A5143B5F90820B5F91030EC
:102A0000D31AB4F902C0B4F91220ACEB020203FBF2
:102A10001210FDF77DFD3060B4F90010B4F91020FC
:102A2000891AB5F90820B5F91030D21A5143B5F911
:102A30000020D21AB4F90830B4F910C0A3EB0C038B
:102A400002FB1310FDF764FD7060B4F91010B5F9C6
:102A500008205143B4F90820B5F9103002FB1311D6
:102A6000B4F902205143B4F900205A43B4F91030AC
:102A7000B5F900C003FB1C23B4F90A2003FB0212C2
:102A8000B4F9081001FB0CF1B4F90030B5F908C035
:102A900003FB1C13B4F9121003FB0120FDF738FDF2
:102AA000B060B5F90220B5F91210511AB4F90A3024
:102AB000B4F912209A1A5143B5F90A30B5F9122027
:102AC0009B1AB4F902C0B4F91220ACEB020203FB6A
:102AD0001210FDF71DFDF060B4F90010B4F91020DC
:102AE000891AB5F90A30B5F912209A1A5143B5F985
:102AF0000230B5F912209A1AB4F90830B4F910C0AE
:102B0000A3EB0C0302FB1310FDF702FD3061B4F9D7
:102B10001010B5F90A205143B4F90830B5F9122064
:102B200003FB1211B4F902205143B4F90020B5F9A6
:102B300012305A43B4F91030B5F902C003FB1C231C
:102B4000B4F90A2003FB0213B4F9081001FB0CF1DD
:102B5000B4F900C0B5F90A200CFB1212B4F9121036
:102B600002FB0130FDF7D4FC70613846BDE8F0810E
:102B700001B5002007E00C2100BF0A00A1F101030C
:102B8000D9B2FAD1401C00998842F4D308BD0000A4
:102B90002DE9FC5F05460C460126684600F0BEF8AC
:102BA000002865D0BDF90200FDF7B2FC834632482B
:102BB000007800EB400004EBC00041685846FDF788
:102BC00056FB8146BDF90000FDF7A2FC83462A486A
:102BD000007800EB400054F830105846FDF747FBF2
:102BE00082464946FDF7EBFA80462348007800EB21
:102BF000400004EBC00081684046FDF7E0FA07465C
:102C0000FDF78FFC00B22880BDF90200FDF780FCC3
:102C100083461948007800EB400004EBC0000169CE
:102C20005846FDF724FB8146BDF90000FDF770FC16
:102C300083461148007800EB400004EBC000C168F7
:102C40005846FDF714FB82464946FDF7B8FA804620
:102C50000948007800EB400004EBC00041694046A1
:102C6000FDF7ADFA0746FDF75CFC00B2688000E0B6
:102C700000263046BDE8FC9F0800002008B5012171
:102C80006020FFF74FF90120ADF800008DF8020039
:102C900010208DF8030069461A48FEF774FA0420E4
:102CA000ADF8000069461748FEF76DFA0820ADF848
:102CB000000001208DF8020048208DF803006946CD
:102CC0001048FEF760FA4FF40050ADF80000012004
:102CD0008DF8020010208DF8030069460A48FEF7BF
:102CE00052FA4FF400510848FEF7E1FA1020ADF80F
:102CF000000048208DF8030069460248FEF743FAB9
:102D000008BD0000001801400014014010B5044641
:102D1000204600F01BFC00F0C1F810BD2DE9F04783
:102D20008CB00646002528216846FDF736FA00BF1C
:102D30000AA90BA800F09EF8BDF92C002DF815008B
:102D4000BDF9281005A820F81510681CC5B210217F
:102D50004648FEF7A3FA08B90A2DE9DB10214348DB
:102D6000FEF79CFA10B10020414908700A2D7BD172
:102D7000BDF90070B846BDF91490CA4601240EE0B2
:102D80003DF91400B84202DA3DF9147005E03DF94E
:102D90001400404501DD3DF91480601CC4B20A2CCA
:102DA000EEDB012412E005A830F91400484503DAEF
:102DB00005A830F9149007E005A830F91400504533
:102DC00002DD05A830F914A0601CC4B20A2CEADBAD
:102DD000BDF90000BDF902100844BDF90410084413
:102DE000BDF906100844BDF908100844BDF90A10E1
:102DF0000844BDF90C100844BDF90E100844BDF993
:102E000010100844BDF912100844C01BA0EB0800C4
:102E1000C01000B23080BDF91410BDF91600014495
:102E2000BDF918000144BDF91A000144BDF91C00A8
:102E30000144BDF91E000144BDF920000144BDF963
:102E400022000144BDF924000144BDF926000844D4
:102E5000A0EB0900A0EB0A00C01000B270800120B6
:102E60000CB0BDE8F087FFE70020F9E7001801404B
:102E7000D40000202DE9F04104460D469020FFF7D4
:102E800045FF06B20120FFF773FED020FFF73EFF9B
:102E900007B226802F80BDE8F081000070B50025C4
:102EA00004211148FEF703FA01210F48FEF701FA49
:102EB000002414E001210C48FEF7F9F908210A4822
:102EC000FEF7ECF90646C4F10B0006FA00F02843C1
:102ED00085B201210448FEF7ECF9601CC4B20C2C49
:102EE000E8DB284670BD00000018014010B5002442
:102EF0002748007820B1012811D002283FD12FE0C7
:102F000010212448FEF7CAF920B901202049087091
:102F1000002403E000201E490870002434E0102142
:102F20001C48FEF7BBF9A0B91B480068401C1A49B1
:102F3000086008460068022806D9002008600220C0
:102F40001349087001240AE0012011490870002487
:102F500005E00020104908600D490870002413E0C6
:102F600010210C48FEF79AF920B902200849087090
:102F7000012403E0002006490870002404E000203A
:102F800003490870002400BF00BF204610BD0000A8
:102F9000D500002000180140D800002010B50446DC
:102FA000B4F90400401C20B9B4F90400401C00B975
:102FB00010BD628891B2228890B2FFF7BFFB00BFBC
:102FC000F6E7000010B5FFF791FF012817D1202088
:102FD000144908600120091D08600220091F0860CB
:102FE00011491248FFF7D4FD1048FFF7D7FF0F48EB
:102FF00000880E49888008464088C88011E020205B
:1030000008490860012008600220091D086007487F
:1030100000F00EF84FF0FF300449088048808880A7
:10302000C88010BD100C014014000020DC000020FE
:1030300010B50446B4F90400401C20B9B4F90400EA
:10304000401C00B910BDE28891B2A28890B2FFF78F
:1030500045FC00BFF6E700002DE9F04FB9B004468B
:103060004FF00009CA4600201E901D900026FE4821
:10307000FEF764FE00211F20FEF756FE2046FEF7F5
:103080004BFCFA4800888010ADF85400F8480088DE
:103090008010ADF85600BDF85400ADF85C00F4485F
:1030A000008800EB4000801001B215A84181EF4874
:1030B000008800EB4000801000B2ADF8640015A855
:1030C00041894182BDF86400ADF86C00BDF856102E
:1030D00015A84183002558E0E5480388E3480288A5
:1030E00000210846FEF726F9E2A6FEF711FE8088C9
:1030F000DE49098891FBF0F83046FDF759F8A8EB56
:103100000000470820233A46E0A11FA8009600F0DF
:103110005FFAD749098848101FA9FEF7B9F9FEF7E9
:10312000F7FD8088D149098891FBF0F0471E681CA3
:10313000009007EBD77042102023D6A11FA800F003
:1031400047FAFEF7E5FDC088C9490988C0EB610070
:1031500087B21FA93846FEF79BF9D048FFF708FD54
:1031600015AA02EBC502528891B215AA32F8352091
:1031700090B2FEF71BFA00BF0DA901EBC500FFF7E7
:10318000CDFD0028F8D0681CC5B2042DA4DB06AA2A
:103190000DA915A8FFF7FDFB00210C98FDF71EFAFD
:1031A00000D143E1BDF94E00FDF7B2F90390079954
:1031B000FDF75DF88346BDF94C00FDF7A9F90390D2
:1031C0000699FDF754F859460490FCF7F8FF80463D
:1031D0000899FCF7F4FF05900C99FDF77AF807467B
:1031E000FDF7B8F91FFA80F9BDF94E00FDF790F927
:1031F00003900A99FDF73BF80590BDF94C00FDF7E7
:1032000087F903900999FDF732F804900599FCF7C6
:10321000D6FF83460B99FCF7D2FF80460C99FDF749
:1032200058F80746FDF796F91FFA80FABDF96C00C9
:10323000484504DABDF96C00A9EB000003E0BDF9D4
:103240006C00A0EB090080B21E90BDF96E005045E5
:1032500004DABDF96E00AAEB000003E0BDF96E00D0
:10326000A0EB0A0080B21D901E980F2802DC1D986A
:103270000F2800DDDAE00C98FDF780F9CDE90201B6
:103280000698FDF77BF907460022854BFDF75FF8AE
:10329000CDE90001DDE90223FDF7CBF8CDE904011A
:1032A000FDF77FF904EB44017E4A42F831000C98A7
:1032B000FDF764F9CDE902010798FDF75FF90746CC
:1032C0000022774BFDF743F8CDE90001DDE9022349
:1032D000FDF7AFF8CDE90401FDF763F904EB440114
:1032E000704A02EBC10148600C98FDF747F9CDE93F
:1032F00002010898FDF742F907460022684BFDF7E6
:1033000026F8CDE90001DDE90223FDF792F8CDE9C9
:103310000401FDF746F904EB4401624A02EBC101E6
:1033200088600C98FDF72AF9CDE904010998FDF7AA
:1033300025F900225A4BCDE90001FDF708F8CDE947
:103340000201DDE90423FDF774F80746FDF729F9CA
:1033500004EB4401534A02EBC101C8600C98FDF72D
:103360000DF9CDE904010A98FDF708F900224C4B4C
:10337000CDE90001FCF7EBFFCDE90201DDE9042313
:10338000FDF757F80746FDF70CF904EB4401454AF1
:1033900002EBC10108610C98FDF7F0F8CDE90201DC
:1033A0000B98FDF7EBF800223D4BCDE90001FCF74F
:1033B000CEFF0746DDE90223FDF73BF8CDE9040126
:1033C000FDF7EFF804EB4401364A02EBC101486116
:1033D000274803882548028800210846FDF7AAFFF0
:1033E0004FF4FC60FEF7B0FC2FA6FEF791FC80883E
:1033F0001E49098891FBF0F83046FCF7D9FEA8EB8E
:103400000000470820233A4620A11FA8009600F09C
:10341000DFF81749098848101FA9FEF739F827482F
:10342000FFF7A6FB012039B0BDE8F08F10480388F4
:103430000E48028800210846FDF77CFF4FF47840D3
:10344000FEF782FC1EA6FEF763FC80880749098808
:1034500091FBF0F83046FCF7ABFEA8EB0000470804
:1034600020233A4609A133E0E400002004000020B4
:1034700006000020546F7563682043616C696272B6
:10348000617465202E2E2E2E2E2E0000252A6325F7
:1034900073000000252A632564000000E093040007
:1034A0000000F03F1400002043616C696272617497
:1034B00065205375636365640000000040420F009F
:1034C00043616C696272617465206661696C0000B9
:1034D0001FA8009600F07CF81649098848101FA91B
:1034E000FDF7D6FF14A6FEF713FC8088154909885E
:1034F00091FBF0F83046FCF75BFEA8EB00004708B4
:1035000020233A46AFF27C011FA8009600F060F835
:10351000FEF7FEFBC0880749098800EB610087B20F
:103520001FA93846FDF7B4FF0748FFF721FB00202D
:1035300079E70000060000207472792061676169F4
:103540006E0000000400002040420F0070B50546E8
:1035500004211648FDF7ABFE01211448FDF7A7FE34
:1035600000241FE0C4F1070045FA00F000F001005C
:1035700020B104210D48FDF79CFE03E004210B4817
:10358000FDF795FE0520FFF7F3FA01210748FDF747
:1035900090FE0520FFF7ECFA01210448FDF787FEB5
:1035A000601CC4B2082CDDDB70BD000000180140B7
:1035B0000FB4054B10B503A9044A029800F02CF88B
:1035C00010BC5DF814FB0000013A00081401002053
:1035D0000FB4084B10B504A902AA039800F01CF818
:1035E000044602A9002000F0B8F9204610BC5DF89E
:1035F00014FB00005B39000802E008C8121F08C174
:10360000002AFAD170477047002001E001C1121F63
:10361000002AFBD1704700002DE9FF4F8BB0884690
:103620000546002606E025280BD0DDE90D1290475F
:103630006D1C761C28780028F5D10FB03046BDE807
:10364000F08F0024A146A2460122AE4900E00443C7
:1036500015F8013F203B02FA03F00842F7D1287821
:103660002A2810D06FF02F022878A0F13001092904
:1036700015D809EB890102EB410144F0020400EB8B
:1036800001096D1CF0E758F8041B5FEA010903D536
:1036900044F40054C9F1000944F002046D1C287878
:1036A0002E2817D115F8010F44F004042A280ED053
:1036B0006FF02F022878A0F1300109290AD80AEB0F
:1036C0008A0102EB410100EB010A6D1CF2E758F898
:1036D00004AB6D1C28786C280FD006DC4C2817D062
:1036E00068280DD06A2814D104E0742810D07A28F4
:1036F0000FD10DE044F400140AE044F4801401E01A
:1037000044F440146978814202D104F580146D1CA0
:103710006D1C2878692865D006DC00288DD06328C8
:1037200027D0642806D15DE06E2808D073282AD0FF
:10373000752877D0DDE90D129047761CE0E0C4F3E0
:103740000250022809D003280DD0D8F80010042810
:103750000DD00E6008F10408D2E0D8F80010F2177E
:10376000C1E90062F6E7D8F800100E80F2E70E70AB
:10377000F0E718F8041B8DF8001000208DF8010008
:10378000EB46012003E058F804BB4FF0FF3061071F
:103790004FF0000701D40AE07F1C57450DDA87423D
:1037A000FADB1BF807100029F6D106E07F1C8742E0
:1037B000FCDB1BF807100029F8D1DDE90D23A9EB8C
:1037C00007008146214600F0B1F83044C61904E0F4
:1037D000DDE90D121BF8010B90477F1EF8D2214640
:1037E000484688E058F8040BC4F302514FF00A0B26
:1037F000032900D100B2042900D140B2002802DA26
:1038000040422D2102E0210505D52B218DF8241001
:10381000012104E006E0E10710D02021F6E708AF1F
:10382000089113E058F8040BC4F302514FF00A0B4F
:10383000032900D180B2042900D1C0B20021EEE7F3
:103840005946FCF7D5FE303107F8011D0028F7D1A5
:10385000ADEB070000F1200B600702D524F48034A3
:1038600001E04FF0010ADA4502DDAAEB0B0000E0AF
:103870000020824600EB0B0108980144A9EB0100EF
:103880000A90E00306D4DDE90D2321460A9800F0F2
:103890004DF806444FF0000908E009A911F80900A5
:1038A000DDE90D12904709F10109761C0899894557
:1038B000F3DBE0030CD5DDE90D2321460A9800F087
:1038C00035F8064404E0DDE90D1230209047761CFF
:1038D000BAF10001AAF1010AF5DC05E0DDE90D12FB
:1038E00017F8010B9047761CBBF10001ABF1010BFF
:1038F000F4DC0A982146DDE90D2300F005F80644C2
:103900006D1C97E6092801002DE9F04104460025C9
:103910001E461746880404D405E039462020B047E7
:103920006D1C641EF9D52846BDE8F0812DE9F041F3
:10393000044600251E469046C80301D5302700E006
:103940002027880404D505E041463846B0476D1C61
:10395000641EF9D52846BDE8F0810A68531C0B6047
:103960001070704738B50C2000F0CCF804462148A0
:103970000088FCF703FCFCF7F7FB272190FBF1F232
:1039800001FB12002060FCF7EFFB272190FBF1F216
:1039900001FB12006060184805680DE02068296886
:1039A000884208D160686968884204D1204600F0E6
:1039B00039F8FFF7D7FFAD68A8680028EED14FF6B9
:1039C000FF714FF47840FEF7AFF901200090626874
:1039D00002EB42024FF6FF7303EA4201226802EB58
:1039E000420203EA420006231A46FDF745FE034859
:1039F000046038BD0C0100200001002004010020FB
:103A000070B504460D46E1B20548FEF7BCFF00BFA5
:103A100080210348FEF7AAFF0028F9D0204670BD98
:103A20000038014010B5002821D0114B0022001FA2
:103A3000196803E0814203D80A4649680029F9D190
:103A400052B11368841A9C4204D100681844106073
:103A5000104602E0506000E0186039B102680B1AAD
:103A6000934203D10B681A4402604968416010BD5B
:103A700018010020164909680968491C71B11449E8
:103A800009684968491C49B1114909680968282928
:103A900004D00F4909684968282902D101210D4A3B
:103AA00011700B49096888680FE0094A01681268BB
:103AB0001268914208D106490968496842689142F2
:103AC00002D10121034A117080680028EDD17047AE
:103AD000000100200A010020FDF77AFFFFF7CEF871
:103AE00000210620FCF7F0FFFCF7B2FFFEF732F9E9
:103AF00003480078FEF7A4F901E000F039F8FCE78C
:103B000008000020F0B50B30154D20F0070100240F
:103B1000144A0FE003688B420BD38B4205D95E1A1F
:103B200043184768C3E9006700E04368136002C0B8
:103B300004E0021D10680028ECD12046002802D1C4
:103B4000286808B10020F0BD064A07481060074AFF
:103B5000121A22F00702C0E9002401202860D7E7EA
:103B60001C010020180100209C0100209811002059
:103B700070B586B00C20FFF7C5FF05468148007878
:103B800000287DD1804800780128FAD17F4800784C
:103B9000522809D17E4800680068401C28607C4893
:103BA00000684068686028E0784800784C2809D1AF
:103BB000774800680068401E2860754800684068C3
:103BC00068601AE071480078552809D1704800688B
:103BD000006828606E4800684068401E68600CE01D
:103BE0006A480078442808D169480068006828605D
:103BF000674800684068401C68604FF6FF714FF4EA
:103C0000FC60FEF791F863492868096809688842F2
:103C10003FD16049686809684968884239D15C4881
:103C20000068A8605A480560046812E0012000900E
:103C3000626802EB42024FF6FF7303EA4201226818
:103C400002EB420203EA420006231A46FDF714FD86
:103C5000A468A0680028E9D14F480078401C4E496C
:103C60000870084602784DA101A8FFF7B1FC4E4844
:103C7000FEF764F84FF6FF710020FEF755F800E0FC
:103C800041E001AAFD21A220FDF736FCFFF76AFE04
:103C900039E03F480068A8603D480560046812E0CC
:103CA00001200090626802EB42024FF6FF7303EAC4
:103CB0004201226802EB420203EA420006231A464E
:103CC000FDF7DAFCA468A06880680028E8D14FF608
:103CD000FF710846FEF728F801200090626802EBA9
:103CE00042024FF6FF7303EA4201226802EB4202EE
:103CF00003EA420006231A46FDF7BEFCA068FFF760
:103D000091FE0020A060FFF7B5FE1E480078012854
:103D100033D14FF6FF714FF47840FEF705F8234892
:103D2000FEF70CF822A278210C20FDF7E5FB1E48D7
:103D3000FEF704F821A29D214020FDF7DDFB0022C3
:103D400001212248FEF79FFC00BFFFF7CFF80128B2
:103D5000FBD10F480668344604E0B4683046FFF7EC
:103D600061FE2646002CF8D12046FFF75BFE0620B8
:103D7000FEF766F80020034908701548FCF7F3FFCA
:103D800006B070BD0A0100200B01002008010020D0
:103D900000010020040100200901002053636F721C
:103DA000653A256400000000E4000020F4000020D3
:103DB00047616D65206F766572000000B5E3BBF763
:103DC000C8CED2E2B4A6BFAACABC00000010004010
:103DD000FFFF0F00000000000000000000000000D6
:103DE0000000000000000018181818181808000833
:103DF000180000000000003424242400000000000B
:103E0000000000000000000016247F2424247E24EB
:103E100024000000000000083E6848681C161212CA
:103E20007C10100000000061D29674081016294919
:103E3000C6000000000000003C646438724ACE46B0
:103E40007F00000000000018181818000000000093
:103E5000000000000000000408181030303030105E
:103E600010180C04000000201008080C0404040CB6
:103E700008181020000000080A341C6A080000001E
:103E8000000000000000000000001818187F18183B
:103E900018000000000000000000000000000018F2
:103EA000180830000000000000000000003C000086
:103EB00000000000000000000000000000000018EA
:103EC000180000000000000206040C080810102072
:103ED00020400000000000003C6642475B734266E1
:103EE0003C00000000000000187848080808080896
:103EF0007E000000000000003C460606040810207A
:103F00007E000000000000007C0606043C02020661
:103F10007C000000000000000C1C14246444FF041A
:103F200004000000000000007E6060607E02020667
:103F30007C000000000000001E30604876424262B3
:103F40003C000000000000007E0206040C0818106F
:103F500030000000000000003C6242361C66424215
:103F60003C000000000000003C664242661A020469
:103F70007800000000000000000018180000001881
:103F800018000000000000000000181800000018D1
:103F90001808300000000000000004183060100C09
:103FA0000600000000000000000000007E007E000F
:103FB00000000000000000000000301804060C1093
:103FC00020000000000000301C060606181000103B
:103FD000100000000000001C224141DDB5A5A5AF86
:103FE00094C0403C00000000181C342426627E432C
:103FF000C1000000000000007C4642467C42424274
:104000007C000000000000001E2040404040406056
:104010003E000000000000007C464243434342460D
:1040200078000000000000007E6060607E606060DC
:104030007E000000000000007E6060607E606060C6
:1040400060000000000000001E604040CE4242625E
:104050003E00000000000000424242427E424242D6
:1040600042000000000000007E18181818181818E8
:104070007E000000000000007C04040404040444EA
:1040800078000000000000004244485070584C4442
:1040900042000000000000002020202020202020DE
:1040A0003E000000000000006266675F5B5BC1C10C
:1040B000C100000000000000626272525A4A4E467F
:1040C00046000000000000003C6243C3C3C34362DB
:1040D0003C000000000000007C4642424678404020
:1040E00040000000000000003C6243C3C3C34362C1
:1040F0003C180F00000000007C6662667C6C646601
:1041000062000000000000003E6040601C060202E9
:104110007C000000000000007F18181818181818FC
:104120001800000000000000424242424242426247
:104130003C00000000000000C14342622624341C01
:104140001800000000000000C1C141495B5B7666B9
:10415000660000000000000043663418181C246646
:10416000C300000000000000C14266341C1818188B
:1041700018000000000000007E02040C18102060EF
:104180007E0000000000001C101010101010101015
:104190001010101C000000402020101008080C0413
:1041A000060200000000003C0C0C0C0C0C0C0C0C6B
:1041B0000C0C0C3C00000000181C246200000000E5
:1041C00000000000000000000000000000000000EF
:1041D000000000FF000000201000000000000000B0
:1041E000000000000000000000003C06023E4246C5
:1041F0007A0000000000004040405C6242424242BF
:104200007C0000000000000000001E2060406020D4
:104210003E0000000000000202023E62424242668E
:104220003A0000000000000000003C62427E406056
:104230003E0000000000000F1810107E101010103B
:10424000100000000000000000003F664266584079
:104250003E43423C0000004040405C6242424242D9
:10426000420000000000001818007808080808083C
:104270007E000000000000040C007C040404040420
:1042800004040C78000000606060626C7870686400
:104290006200000000000078080808080808080804
:1042A0007E000000000000000000764B4B4B4B4BA3
:1042B0004B0000000000000000005C6242424242ED
:1042C000420000000000000000003C6242434262E5
:1042D0003C0000000000000000005C6242424242DC
:1042E0007C4040400000000000003E6242424266C6
:1042F0003A0202020000000000006E72636060601B
:10430000600000000000000000003E20203C06028B
:104310007C000000000000001010FE1010101010B3
:104320001E000000000000000000424242424266BF
:104330003A000000000000000000434266243418E8
:1043400018000000000000000000C1C15B5A5E665A
:104350006600000000000000000062261C181C26F9
:104360006200000000000000000043426624341C8C
:10437000181830E00000000000007E060C18102025
:104380007E0000000000000E181010103070101099
:104390001010180E00000808080808080808080887
:1043A0000808080800000030180808080C0E080863
:1043B000080818300000000000000000714B0600E3
:1043C00000000000000000000000000000000000ED
:1043D00000000000000000000000000000000000DD
:1043E00000000000000000000000000000000000CD
:1043F000000000000000000000000000000003803A
:1044000001800180018001800180018001800180A4
:1044100001800000000003C003C000000000000095
:1044200000000000000000000000000000000E700E
:104430000E700E700C300000000000000000000044
:10444000000000000000000000000000000000006C
:10445000000000000000000000000000000000005C
:104460000618063806307FFE0C300C300C300C304D
:104470007FFE0C601C6018601860000000000000E7
:1044800000000000000000000000000000C000C0AC
:104490000FF83CC831C031803D801F8003F001F827
:1044A000031C030C031C3FF83FE00700060000005C
:1044B0000000000000000000000000001C007E0E54
:1044C000630C631863307E6000C001800300077CCA
:1044D0000EE61CC618C630C6607C00000000000056
:1044E00000000000000000000000000000000FE0DD
:1044F0001CF0387038701C601FC00F003F8C71CCEE
:1045000060EC607C70383CFC1FCE000000000000B6
:10451000000000000000000000000000000003C0D8
:104520000180018001800000000000000000000008
:10453000000000000000000000000000000000007B
:10454000000000000000000000000000003000E05B
:1045500001C0018003000700060006000E000E00E7
:104560000E000E00060007000300038001C000E0FB
:104570000030000000000000000000000C000600F9
:104580000380018001C000E00060006000700070E6
:1045900000700060006000E000C001800380060041
:1045A0000C0000000000000000000000000001807E
:1045B00011881DB803C007E03DBC018801800000E0
:1045C00000000000000000000000000000000000EB
:1045D00000000000000000000000000000000000DB
:1045E00000000000018001800180018001807FFEC9
:1045F00001800180018001800000000000000000B7
:1046000000000000000000000000000000000000AA
:10461000000000000000000000000000000000009A
:104620000000000003C003C001C001C003801F00E0
:10463000000000000000000000000000000000007A
:1046400000000000000000000000000000000FF06B
:10465000000000000000000000000000000000005A
:10466000000000000000000000000000000000004A
:10467000000000000000000000000000000000003A
:104680000000000003C003C003C0000000000000E1
:104690000000000000000000000000000000001802
:1046A00000380030006000E000C001C0018003005D
:1046B000030006000E000C001C0018003000000073
:1046C0000000000000000000000000000000018069
:1046D0000FF01C38381C301C707E70EE738E7E0E0E
:1046E0007C0C300C381C1E780FE00000000000002D
:1046F00000000000000000000000000000000000BA
:1047000007C01FC039C001C001C001C001C001C045
:1047100001C001C001C03FFC3FFC000000000000E0
:104720000000000000000000000000000000038006
:104730001FF018380038001800380038007001E009
:10474000038007001C003FFC3FFC0000000000004D
:1047500000000000000000000000000000000780D2
:104760001FF0003800380038003007E007F000384C
:10477000001C001C001820F83FE0000000000000B2
:104780000000000000000000000000000000000029
:1047900000F001B0033007300E301C30383070307C
:1047A0007FFE7FFE0030003000300000000000007F
:1047B00000000000000000000000000000000000F9
:1047C0001FF818001800180018001FE000F8001C5F
:1047D000001C001C003800F01FC00000000000009A
:1047E00000000000000000000000000000000000C9
:1047F00003F80F001C001800300037F83C3C300C68
:10480000300C380C381C1E380FF00000000000007F
:104810000000000000000000000000000000000098
:104820003FFC001C001800380070006000E001C070
:1048300001800380070006000E0000000000000059
:10484000000000000000000000000000000003C0A5
:104850001FF8381C381C381C1C380FF007F01C7867
:10486000381C300C381C3C380FF0000000000000F1
:1048700000000000000000000000000000000380B5
:104880001FF03838301C701C700C380C1FFC0FCC1B
:10489000001C001800701FE01F80000000000000D6
:1048A0000000000000000000000000000000000008
:1048B00000000000000003C003C0018000000000F1
:1048C0000000000003C003C003C00000000000009F
:1048D00000000000000000000000000000000000D8
:1048E00000000000000003C003C0018000000000C1
:1048F0000000000003C003C001C001C003800F001E
:1049000000000000000000000000000000000000A7
:1049100000000000003800F001C007001E00380051
:104920000E00078001C00070003000000000000091
:104930000000000000000000000000000000000077
:10494000000000000000000000003FFC000000002C
:104950003FFC3FFC000000000000000000000000E1
:104960000000000000000000000000000000000047
:10497000000000001C000F00038001E00078001C14
:10498000007001E003800E000C0000000000000039
:1049900000000000000000000000000000000FC048
:1049A00000F0003800380038003803F003800300BE
:1049B00003000000000007800780000000000000E6
:1049C00000000000000000000000000000E007F808
:1049D0000C0C18063006700363F36633C673CC63A1
:1049E000CC62CC66CCE6C7FCE000600070003810FA
:1049F0001FF00000000000000000000000000000A8
:104A000003C007E006E00E700E700C301C3818185A
:104A10003FFC3FFC700E600EE0070000000000004D
:104A20000000000000000000000000000000000086
:104A30003FF03838381C381C38383FF03FF8381C05
:104A4000380C380C381C3FF83FE000000000000034
:104A5000000000000000000000000000000000E076
:104A600007FC1E0438003800300070007000700031
:104A7000300038003C001F9C07FC000000000000D4
:104A80000000000000000000000000000000000026
:104A90003FF03078301C300C300E300E300E300EBF
:104AA000300E301C30383FF03FC0000000000000E6
:104AB00000000000000000000000000000000000F6
:104AC0001FF818001800180018001FF81FF8180029
:104AD0001800180018001FF81FF800000000000060
:104AE00000000000000000000000000000000000C6
:104AF0001FF818001800180018001FF81FF81800F9
:104B0000180018001800180018000000000000002D
:104B1000000000000000000000000000000000F0A5
:104B200007FC1E04380030007000700070FC700C30
:104B3000700C300C380C1F1C07FC0000000000003B
:104B40000000000000000000000000000000000065
:104B5000300C300C300C300C300C3FFC3FFC300C77
:104B6000300C300C300C300C300C00000000000019
:104B70000000000000000000000000000000000035
:104B80003FFC018001800180018001800180018063
:104B90000180018001803FFC3FFC0000000000001C
:104BA0000000000000000000000000000000000005
:104BB0001FF0003000300030003000300030003096
:104BC0000030003000701DE01FC000000000000039
:104BD00000000000000000000000000000000000D5
:104BE000381C387038E039C03B803F003F003B80C4
:104BF00039C038E038703838381C00000000000038
:104C000000000000000000000000000000000000A4
:104C10001C001C001C001C001C001C001C001C00B4
:104C20001C001C001C001FFC1FFC000000000000FA
:104C30000000000000000000000000000000000074
:104C4000381C7C3C6C3E6E6E666E66CE63C66386B8
:104C500061866006600660066006000000000000D5
:104C60000000000000000000000000000000000044
:104C70003C0C3C0C3E0C360C330C338C318C31CC60
:104C800030EC306C307C303C301C00000000000008
:104C9000000000000000000000000000000001C053
:104CA0000FF81C3C381C700E700E60066006700E0B
:104CB000700E700C381C1E780FE000000000000021
:104CC00000000000000000000000000000000000E4
:104CD0003FF0383C381C380C380C381C38783FE032
:104CE00038003800380038003800000000000000AC
:104CF000000000000000000000000000000001C0F3
:104D00000FF81C3C381C700E700E60066006700EAA
:104D1000700E700C381C1E780FE0018001C000FF7F
:104D2000003C000000000000000000000000000047
:104D30003FF0383838183818383838F03FC038E085
:104D4000387038383838381C380E00000000000041
:104D5000000000000000000000000000000001E072
:104D60000FF83800380038003C001F8003F000784E
:104D7000001C001C001C38783FE000000000000010
:104D80000000000000000000000000000000000023
:104D90007FFE01800180018001800180018001800F
:104DA000018001800180018001800000000000007E
:104DB00000000000000000000000000000000000F3
:104DC000300C300C300C300C300C300C300C300C03
:104DD000300C300C381C1C380FF0000000000000B4
:104DE00000000000000000000000000000000000C3
:104DF000E006700E700E381C381C1C181C380C3065
:104E00000E70066007E003C003C000000000000051
:104E10000000000000000000000000000000000092
:104E200060066006600660066186638673C673CEA0
:104E3000766C366C3C3C3C3C381C000000000000AA
:104E40000000000000000000000000000000000062
:104E5000301C38181C380E7007E003C003C007E090
:104E60000E701C381838381C700E0000000000004E
:104E70000000000000000000000000000000000032
:104E8000700E700C381C1C380E70066007E003C0F2
:104E9000018001800180018001800000000000008D
:104EA0000000000000000000000000000000000002
:104EB0003FFC001C0038007000E001C003800700C8
:104EC0000E000C0018003FFC3FFC0000000000003A
:104ED00000000000000000000000000007F007F0E4
:104EE0000600060006000600060006000600060092
:104EF0000600060006000600060006000600060082
:104F000007F0000000000000000000000000180092
:104F10001C000C000600070003000380018001C094
:104F200000C000600070003000380018000C000065
:104F30000000000000000000000000000FE00FE093
:104F40000060006000600060006000600060006061
:104F50000060006000600060006000600060006051
:104F60000FE0000000000000000000000000000052
:104F700003C006C006600C301818301C000000008A
:104F80000000000000000000000000000000000021
:104F90000000000000000000000000000000000011
:104FA0000000000000000000000000000000000001
:104FB00000000000000000000000000000000000F1
:104FC000FFFF0000000000000000000000001E00C5
:104FD000038000000000000000000000000000004E
:104FE00000000000000000000000000000000000C1
:104FF00000000000000000000000000000000000B1
:105000000000000000001FF01038001C001C0FFC06
:105010001C1C381C381C3CFC1FDC0000000000007D
:105020000000000000000000000000000000380048
:105030003800380038003BF83E1C3C1C380C380C5B
:10504000380C380C381C3C781FE0000000000000D1
:105050000000000000000000000000000000000050
:1050600000000000000007F80E001C0038003800A7
:10507000380038001C000F1807F80000000000007E
:105080000000000000000000000000000000001C04
:10509000001C001C001C0FFC1C1C381C301C301C8D
:1050A000301C301C383C1CFC0F9C00000000000031
:1050B00000000000000000000000000000000000F0
:1050C0000000000000000FF01C38381C300C3FFCC2
:1050D0003000300038001E0C07FC0000000000000B
:1050E000000000000000000000000000003C01FE85
:1050F00003800300030003007FFC7FFC0300030028
:105100000300030003000300030000000000000090
:10511000000000000000000000000000000000008F
:105120000000000000000FFE1C383818381818382E
:105130001FF03B8030003FF01FFC300E700E381C1B
:105140001FF8000000000000000000000000380010
:105150003800380038003BF83E383C1C381C381CFE
:10516000381C381C381C381C381C0000000000009B
:10517000000000000000000000000000018003C0EB
:1051800003C0000000001FC001C001C001C001C079
:1051900001C001C001C001C03FFC000000000000D0
:1051A000000000000000000000000000002000706F
:1051B0000070000000003FF0007000700070007090
:1051C000007000700070007000700070007020E0CF
:1051D0003FC00000000000000000000000001800B8
:1051E000180018001800183C187018E01B801F00E9
:1051F0001B8019E018701838181C0000000000000F
:1052000000000000000000000000000000001FC0BF
:1052100001C001C001C001C001C001C001C001C086
:1052200001C001C001C001C03FFC0000000000003F
:10523000000000000000000000000000000000006E
:105240000000000000006F3C79EE71CE718E718E0F
:10525000718E718E718E718E718E00000000000053
:10526000000000000000000000000000000000003E
:105270000000000000003BF83E383C1C381C381C85
:10528000381C381C381C381C381C0000000000007A
:10529000000000000000000000000000000000000E
:1052A0000000000000000FF01C3C381C700E700E57
:1052B000700E700C381C1E780FE00000000000001B
:1052C00000000000000000000000000000000000DE
:1052D0000000000000003BF83E1C3C1C380C380C61
:1052E000380C380C381C3C783FE038003800380067
:1052F0003800000000000000000000000000000076
:105300000000000000000FFC1C1C381C301C301C6E
:10531000301C301C383C1CFC0F9C001C001C001C6A
:10532000001C000000000000000000000000000061
:1053300000000000000019F81F1C1C0C180E1800BB
:1053400018001800180018001800000000000000E5
:10535000000000000000000000000000000000004D
:105360000000000000000FF81C0018001E000FC015
:1053700001F80018001818381FF0000000000000A5
:10538000000000000000000000000000000000001D
:105390000600060006007FFC060006000600060068
:1053A000060006000700078401FC00000000000062
:1053B00000000000000000000000000000000000ED
:1053C000000000000000381C381C381C381C381C39
:1053D000381C381C383C1CFC0FDC000000000000AE
:1053E00000000000000000000000000000000000BD
:1053F000000000000000700C381C38181C380C30FD
:105400000E70066007E003C003C00000000000004B
:10541000000000000000000000000000000000008C
:10542000000000000000600660066186738E73CC89
:1054300033CC366C366C3C3C3C380000000000003D
:10544000000000000000000000000000000000005C
:10545000000000000000381C1C380E7007E003C07C
:1054600003C007E00E701C38381E0000000000006A
:10547000000000000000000000000000000000002C
:10548000000000000000700C381C38181C380C306C
:105490000E70066007E003C003C0038007000E0023
:1054A0007C00000000000000000000000000000080
:1054B0000000000000001FF80038007000E001C08C
:1054C000038007000C001FFC3FFC000000000000F0
:1054D000000000000000000000000000007801F85B
:1054E0000380038003800380038003003F003E00AD
:1054F000030003800380038003800380038001C0D6
:1055000000F800000000000001800180018001809F
:105510000180018001800180018001800180018083
:105520000180018001800180018001800180018073
:105530000180000000000000000000001E001F802D
:10554000018001C001C001C001C000C000FC007C9E
:1055500000C001C001C001C001C001C001C0038082
:105560001F0000000000000000000000000000001C
:10557000000000000000000000001C003F0671CE8B
:1055800060FC0000000000000000000000000000BF
:10559000000000000000000000000000000000000B
:1055A00000000000000000000000000000000000FB
:1055B00000000000000000000000000000000000EB
:1055C00000000000000000000000000000000000DB
:1055D00000000000000000000000000000000000CB
:1055E00000000000000000000000000000000000BB
:1055F00000000000000000000000000000000000AB
:10560000000000000000003C00003C00003C0000E6
:105610003C00003C00003C00003C00003C00003C22
:1056200000003C00003C00003C00003C00003C004E
:10563000000000000000003C00007E00003C000074
:10564000000000000000000000000000000000005A
:10565000000000000000000000000000000000004A
:1056600000000000000003C3E003C3E003C3C00365
:10567000C3C003C3C003C3C003C1C0000000000017
:10568000000000000000000000000000000000001A
:10569000000000000000000000000000000000000A
:1056A00000000000000000000000000000000000FA
:1056B00000000000000000000000000000000000EA
:1056C00000000000000000000000000001E0E00118
:1056D000C0E001C0E001C0E03FFFFE3FFFFE03C1AC
:1056E000C00381C00381C00381C07FFFFC7FFFFC3A
:1056F0000783800703800703800703800707800074
:105700000000000000000000000000000000000099
:105710000000000000000000000000000000000089
:10572000000000000700000F00000E0001FFF0075E
:10573000FFF01F0E001E1E001E1C001E1C000FDCB2
:105740000007FC0000FF80003FF00038F8003878C8
:1057500000783C0070783071F83FFFE01FFF0000D8
:10576000E00000E00000E000000000000000000099
:105770000000000000000000000000000000000029
:105780000000000000000F800F3FE01E78703C70AA
:1057900070707070E07071C03FE3801FC700000E32
:1057A00000001C0000780000F0F001E7FC03CF0EC1
:1057B000078E0E0F0E0E1E0E0E3C07BC7003F80077
:1057C00000000000000000000000000000000000D9
:1057D00000000000000000000000000000000000C9
:1057E00000000000000000000001FF0007FF800F24
:1057F00003C00F03C00F03C00F0780079F0003FE05
:105800000003F0000FF83C3E7C3C3C1F3C780FF856
:105810007807F87C01F03E03F81FFFFC07FE1F002D
:105820000000000000000000000000000000000078
:105830000000000000000000000000000000000068
:10584000000000000000003E00003C00003C0000A2
:105850003C00003C00003C00003C00000000000058
:105860000000000000000000000000000000000038
:105870000000000000000000000000000000000028
:105880000000000000000000000000000000000018
:105890000000000000000000000000000000000008
:1058A0000000000000800001C0000780000F000021
:1058B0001E00003C0000780000F00000E00001E065
:1058C0000001E00001C00003C00003C00001C000EF
:1058D00001E00001E00000F00000F00000780000AE
:1058E0003C00001E00000F000007C00001C00000C7
:1058F00000000000000000000000000000000000A8
:1059000000000000000003C00001E00000F0000003
:105910007C00003E00001E00000F00000780000712
:10592000800003800003C00003C00003C00003C068
:10593000000380000780000780000F00001E0000A9
:105940003C0000780000F00001E00003800000004F
:105950000000000000000000000000000000000047
:10596000000000000000001C00001C000018000FD8
:1059700018F007DBE0007F0000FF0007DBE00E18F7
:1059800070001800001C00001C0000000000000057
:105990000000000000000000000000000000000007
:1059A00000000000000000000000000000000000F7
:1059B00000000000000000000000000000000000E7
:1059C00000000000000000000000000000000000D7
:1059D0000000000000003C00003C00003C00003CD7
:1059E00000003C00003C003FFFFC3FFFFC003C008F
:1059F000003C00003C00003C00003C0000000000B7
:105A00000000000000000000000000000000000096
:105A10000000000000000000000000000000000086
:105A20000000000000000000000000000000000076
:105A30000000000000000000000000000000000066
:105A40000000000000000000000000000000000056
:105A5000000000007C00007E00007E00003E000090
:105A60001E00003C0000F80007E0000400000000F9
:105A70000000000000000000000000000000000026
:105A80000000000000000000000000000000000016
:105A90000000000000000000000000000000000006
:105AA0000000000000000003FFE003FFE000000032
:105AB00000000000000000000000000000000000E6
:105AC00000000000000000000000000000000000D6
:105AD00000000000000000000000000000000000C6
